:020000040800F2
:10000000C007002041020008EB1D00083D1D00084C
:10001000E91D0008C10E0008812100080000000051
:10002000000000000000000000000000EF1D0008BC
:10003000C30E000800000000ED1D0008F11D0008BF
:100040005B0200085B0200085B0200085B0200081C
:100050005B0200085B0200085B0200085B0200080C
:100060005B0200085B0200085B0200085B020008FC
:100070005B0200085B0200085B0200085B020008EC
:100080005B0200085B0200085B0200085B020008DC
:100090005B0200085B0200085B0200085B020008CC
:1000A0005B0200085B0200085B0200085B020008BC
:1000B0005B0200085B0200085B0200085B020008AC
:1000C0005B0200085B0200085B0200085B0200089C
:1000D0005B020008752100085B0200085B02000853
:1000E0005B0200085B0200085B0200085B0200087C
:1000F0005B0200085B0200085B0200085B0200086C
:100100005B0200085B0200085B0200085B0200085B
:100110005B0200085B0200085B0200085B0200084B
:100120005B0200085B0200085B0200085B0200083B
:100130005B0200085B0200085B0200085B0200082B
:100140005B0200085B0200085B0200085B0200081B
:100150005B0200085B0200085B0200085B0200080B
:100160005B0200085B0200085B0200085B020008FB
:100170005B0200085B0200085B0200080000000050
:100180005B0200085B02000800F002F800F049F88A
:100190000AA090E8000C82448344AAF10107DA45E2
:1001A00001D100F03EF8AFF2090EBAE80F0013F0EB
:1001B000010F18BFFB1A43F001031847A0200000ED
:1001C000C0200000103A24BF78C878C1FAD852077E
:1001D00024BF30C830C144BF04680C6070470000C1
:1001E0000023002400250026103A28BF78C1FBD840
:1001F000520728BF30C148BF0B607047642900F028
:10020000F780002070471FB502F010F89DE803004A
:1002100000F028FC00F01AFA1FBD10B500F07FFABC
:1002200010BD00F0E2FA1146FFF7EDFF01F0C8FF44
:1002300000F0E6FB03B4FFF7F0FF03BC00F0A4FD01
:100240000948804709480047FEE7FEE7FEE7FEE76A
:10025000FEE7FEE7FEE7FEE7FEE7FEE704480549A6
:10026000054A064B70470000851E000889010008FA
:10027000C0010020C0070020C0030020C0030020F0
:1002800053EA020C00F069802DE9F04B4FF00006B4
:10029000002B1FBFB3FA83F503FA05F424FA05F621
:1002A0005E4012BF1643B2FA82F502FA05F4C5F1B8
:1002B00020051EBF22FA05FC44EA0C04203556EA4C
:1002C000044C4FEA144418BF641C4FF000084FF070
:1002D0000009904271EB030C39D3002919BFB1FA20
:1002E00081F701FA07F6B0FA80F700FA07F6C7F1CE
:1002F00020071EBF20FA07FC46EA0C062037B6FB93
:10030000F4FCA7EB0507103F07F01F0BCBF120060D
:100310000CFA0BFB2CFA06F644BFB3460026202F3E
:10032000A4BF5E464FF0000B5BEA060C08BF4FF01F
:10033000010B19EB0B09ABFB027C48EB0608C01B59
:1003400006FB02CC0BFB03CC71EB0C01C1E70B46A7
:10035000024641464846BDE8F08B13B54FF0000019
:100360004FF00001AFF30080BDE81C407047000073
:100370000FB4044910B503AA029800F039F910BC73
:100380005DF814FBB80000202DE9F0410E4604464C
:10039000002020622046E168884730B3252805D038
:1003A000D4E901219047206A401CF2E7E168204629
:1003B00000278847050018D0A5F14100192802D868
:1003C00020354FF400673246294620462760FFF764
:1003D00015FF40B1012804D0F61D26F007060836A7
:1003E000D8E7361DD6E72846DAE7206ABDE8F0816F
:1003F0002DE9F0410646002410687529314616A5FE
:1004000010D0AFF30080002802DA404213A507E0C5
:1004100031688A0701D512A502E0490704D511A564
:10042000012401E0AFF3008000210A2206F1240735
:1004300009E0B0FBF2FCB0FBF2F302FB1C00303031
:1004400078541846491C0028F3D123462A463046E2
:10045000BDE8F04100F073B8000000002D0000007E
:100460002B000000200000004FF0000200B51346F2
:1004700094469646203922BFA0E80C50A0E80C50C4
:10048000B1F12001BFF4F7AF090728BFA0E80C5075
:1004900048BF0CC05DF804EB890028BF40F8042B6E
:1004A00008BF704748BF20F8022B11F0804F18BFDB
:1004B00000F8012B704700004FF0013C50F8042B6E
:1004C00051F8043B9A4221D1A2EB0C03934313EA67
:1004D000CC1317D150F8042B51F8043B9A4215D194
:1004E000A2EB0C03934313EACC130BD150F8042B6B
:1004F00051F8043B9A4209D1A2EB0C03934313EA4F
:10050000CC13DBD04FF00000704700BFD01A01BA07
:10051000B1FA81F101F0180122FA01F0CB40C1F1EA
:100520002001DBB2C0B2C01A2CFA01F3D11A9143F8
:1005300011EAC311E6D170477047704770472DE943
:10054000F0470D4699469246044600F1240801689A
:10055000880604D5E06921F01001216000E0012047
:10056000A84201DD471B00E00027A1697A1902EBD0
:100570000900081AA0612078C00602D42046AFF313
:100580000080002608E0D4E901211AF8060090470F
:10059000206A401C761C20624E45F4DB2078C006A1
:1005A0000AD52046AFF3008006E0D4E901213020CF
:1005B0009047206A401C2062381EA7F10107F4DC36
:1005C00007E0D4E9012118F805009047206A401C93
:1005D0002062281EA5F10105F3DC2046AFF3008060
:1005E0002078000602D50220BDE8F0870120FBE755
:1005F000074B70B50D467B4400F011F804462846C1
:1006000000F020F810B14FF0FF3070BD204670BDF3
:10061000AB1B000001694A1C02610878704700B5F5
:100620008FB0CDE901310021059105497944CDE92B
:10063000031011466846FFF7A7FE0FB000BD00008B
:10064000E5FFFFFF007B00F08000704710B54248D7
:100650005421FFF709FF41485421FFF705FF4048A7
:100660005421FFF701FF3F493B483C4A3F4B08609C
:100670003D490A603A491960531C0365481C1065DE
:10068000012008653B48344A39A1784400F01CF940
:1006900020B9384878440A3800F0BBF937482F4A67
:1006A00035A1784400F010F920B9344878440A386C
:1006B00000F0AFF932482A4A2FA1784400F004F93B
:1006C00020B92F4878440A3800F0A3F94023224883
:1006D000DC000021224600F0D4F820B125487844FF
:1006E000543800F096F91D4822464023002100F0BE
:1006F000C8F820B121487844543800F08AF91848E5
:1007000022461023002100F0BCF8002806D01C4827
:100710007844BDE81040563800F07BB910BD104851
:1007200070B5006D20F001040B4800F043F90B4850
:1007300000F040F90A4800F03DF909E0206D20F092
:100740000105204600F036F9204600F073F82C46EB
:10075000002CF3D170BD000064000020B800002020
:100760000C01002014000020180000201C000020B4
:1007700072000000C01B000077000000AC1B0000EE
:10078000981B00000EB5CDE9000100F0DDFA0290E3
:1007900069460120ABBE0EBD08B569460090022037
:1007A000ABBE08BD1FB58DE8070069460520ABBE8E
:1007B00004B010BD1FB58DE80F0069460620ABBE22
:1007C000F6E708B5694600900920ABBE08BD1CB528
:1007D000CDE9000169460A20ABBE1CBD704708B5D3
:1007E000694600900C20ABBE08BD754600F018F9B4
:1007F000AE4605006946534620F00700854618B00E
:1008000020B5FFF72BFDBDE820404FF000064FF06C
:1008100000074FF000084FF0000B21F00701AC4635
:10082000ACE8C009ACE8C009ACE8C009ACE8C00954
:100830008D46704770B50446051F00F0F7F8006854
:10084000002C14BF446870BD002C18BFAC423CBFE4
:1008500020466468F8D301680A18AA4218BF4560A8
:1008600003D12A6805461144016028684119A14254
:100870001CBF6C6070BD61686960216808442860B5
:1008800070BD70B5C468A50713D0650211D4B2F568
:10089000807F09D0B2F5007F06D0B2F5806F08D115
:1008A000012300F1240106E05D1E6FF07F46B54292
:1008B00001D3012070BD0161C361416024F4706106
:1008C0001143C160002070BD2DE9F0410C46074680
:1008D0001646104600F06EF82078611C61280AD098
:1008E000722802D077283CD102E00125002405E0DF
:1008F0000225042402E0082448F2020511F8010B45
:100900002B2806D0622809D011F8010C74280AD0CF
:100910000BE045F0030544F00204EFE745F0040561
:1009200044F00104EAE744F0100438462146FFF79A
:1009300029FF411C15D00021316171604FF4007115
:10094000F560F1617061200704D530460222002174
:1009500000F0E6F8306D40F0010030653046BDE84B
:10096000F0810020FBE72DE9F0410D460646104CD2
:10097000206DC10704D0410804D020F00104F7E73E
:1009800022460EE0542000F09CF807000ED0206DA7
:1009900047F001010843542120653846FFF764FD04
:1009A0003A4629463046BDE8F0418DE70020D6E7BB
:1009B000640000202DE9F04704464FF000094FF095
:1009C000FF37C568D4E90486A80707D0204600F0A1
:1009D00057F93046FFF7E0FE002802DA3846BDE856
:1009E000F087280502D54046FFF724FF4C2120461A
:1009F000FFF73AFD206D20F0010020654846EEE744
:100A000010B50446AFF300802046BDE81040FFF764
:100A100011BC10B500F07EF9BDE8104000F074B9CB
:100A20000048704760010020704700000048704790
:100A300068010020704770477047704738B504461A
:100A40000A4600206946AFF30080002808BF38BD81
:100A500002460099204600F0A4F9012038BD01208B
:100A600000F0F3B9F8B5AFF30080054600200C465E
:100A7000102000BF0646A819A0420DD9324669468B
:100A80000020AFF30080070008BF00F0DEF90098F7
:100A9000A04218BF0546C419FFF7C8FF0560074606
:100AA000F01D20F007004619284600F073F9B44203
:100AB00008BFF8BDA21B31463868BDE8F84000F019
:100AC00070B970B50646FFF7B1FF056806F10B0077
:100AD00020F00704B4429CBF002070BD2B466A681A
:100AE000BAB11068A04210D304F1080188423CBF9B
:100AF0005068586007D35168101941601168091B8C
:100B0000016058601460101D70BD13465268002AC1
:100B1000E7D121462846FFF791FF0028DED170BDBE
:100B20002DE9F041044616460D464769007B8007D3
:100B30002ED03846FFF745FE50BB3EB3012E02D003
:100B4000022E25D104E0204600F045F905441DE0C1
:100B50003846FFF744FEE168002841F01001E160EB
:100B600005DA204600F058F80120BDE8F081C903FD
:100B70000BD56268E16A914200D81146A26911441E
:100B80002269891A814200DD08460544002D01DAF8
:100B90000220EAE7E16A6068E268814206D29103D6
:100BA000E06203D522F4003141F01002A66900276B
:100BB000AE4213DCE16A814201D90B4600E00346F4
:100BC00003EB060C2369ACEB030CAC4506DD81425C
:100BD00001D98C4600E084469C4505D1A76027607A
:100BE00042F02000A5620DE0AD1BE669AE1B81421C
:100BF000A66000D90846C01A281A206058196060FB
:100C000022F0200003490840E060002084F848708A
:100C1000ABE70000BFCFD7FFC16821F4001141F05E
:100C20008001C16000218160016070472DE9F047BB
:100C3000814614460E464FF0FF383248D568576952
:100C4000054209D03846A169FFF7C1FD002811DB34
:100C50002C48C0430540E5602B463246494638469D
:100C6000FFF7A0FDA16920F00042B21A114400284C
:100C7000A16103D02046FFF7CFFF4046BDE8F087D3
:100C800070B504460569C06A6168884200D80846A4
:100C9000E16821F42011E160C90312D5A84208D00F
:100CA0002246411B2846FFF7C1FF10B14FF0FF302D
:100CB00070BD0020E562C4E90150E06820F4803096
:100CC000E060002070BD10B50446C06820F0200030
:100CD000E060A16AA06988420DD02046FFF7D0FFEE
:100CE000E06820F4405040F01000E060A06AA0618D
:100CF0002069E062606044F24001E0688843E0609F
:100D000010BD000010000200002801D000F03CB827
:100D10007047000010B5014602A000F07DF80120E8
:100D200010BD000053494752545245443A20526581
:100D30006469726563743A2063616E2774206F7012
:100D4000656E3A200000000010B5431C02E010F868
:100D5000011B71B18107FAD14FF0013202C88C1A20
:100D60008C4314EAC211F9D0C01A0A0603D0C01E7F
:100D700010BDC01A10BD0A0401D0801E10BD0902AA
:100D8000FCD0401E10BD000001491820ABBEFEE79C
:100D90002600020000210160C0E901107047102008
:100DA0007047034640688C46002818BF88423CBF05
:100DB00003464068F8D318681844884207D00CF1FD
:100DC000030020F00700001D411A521A0146081DB9
:100DD0000A60FFF72FBD10B50146C268900703D027
:100DE000900607D5886A0AE000F03EF8012101600C
:100DF000881E10BD8B69486818440B69C01A91F8A9
:100E000048301BB191F84910401A10BD1103FCD5B0
:100E10000028FADD401E10BD70B505460C460A20BC
:100E200000E06D1C00F018F835B128780028F8D1E2
:100E300002E0641C00F010F814B120780028F8D10A
:100E4000BDE870400A2000F007B810B500F010F8B7
:100E5000BDE81040FFF758BF08B569468DF800009F
:100E60000320ABBE08BD00000048704760010020B1
:100E700010B5012805D0002103A0FFF7CDFF012008
:100E800010BD09A1F8E7000053494752544D454DA4
:100E90003A204F7574206F662068656170206D651B
:100EA0006D6F7279000000003A2048656170206D16
:100EB000656D6F727920636F72727570746564000E
:100EC000FEE7704772B6FEE72DE9F0410446876DF4
:100ED00000F066F9064694F835000025022806D091
:100EE0008020606584F834500120BDE8F0812068DE
:100EF000016821F0160101602068416921F080013C
:100F00004161206C08B9A06C20B12068016821F013
:100F1000080101602068016821F0010101600CE016
:100F200000F03EF9801B052807D9202060650320CA
:100F300084F8350084F83450D7E720680068C0078B
:100F4000EED194F85C103F208840B860012084F80E
:100F5000350084F834500020C7E790F83510022996
:100F600003D08021416501207047052180F83510AC
:100F70000068016821F00101016000207047000055
:100F800070B5044600F00CF90546601C02D0044818
:100F90000078044400F004F9401BA042FAD370BD6D
:100FA000040000202DE9F84FDFF8BCA10022012544
:100FB00003264FF00F090AF1040BAAF1040E00BF3B
:100FC0000B6805FA02F42340A34270D10F7907F0B1
:100FD0000307012F01D0022F16D187684FEA42087C
:100FE00006FA08FC27EA0C07D1F80CC00CFA08FC3A
:100FF0004CEA070CC0F808C04768A7430C79C4F353
:10100000001494403C4344600C79E443A4070AD0A4
:10101000C4684FEA420C06FA0CF7BC438F6807FA23
:101020000CF72743C7600C7904F00304022C12D19B
:10103000D40800EB840CDCF820405707FF0E09FAB7
:1010400007F824EA0804D1F8108008FA07F848EAFB
:101050000408CCF8208004684FEA420C06FA0CF72A
:10106000BC430F7907F0030707FA0CF72743076023
:101070004C6814F4403F70D03C4C276847F48047DC
:101080002760246822F0030704F480440094384C5D
:1010900007EB040CDCF8084897074FEA177809FAC1
:1010A00008F7BC43334FB84202D1002724E054E094
:1010B000314FB84201D101271EE0304FB84201D173
:1010C000022719E02E4FB84201D1032714E02D4F1B
:1010D000B84201D104270FE02B4FB84201D10527B8
:1010E0000AE02A4FB84201D1062705E0284FB8424E
:1010F00001D1072700E0082707FA08F72743CCF8B3
:101100000878DAF800405746D1F804C09C435FEAFB
:10111000CC2C00D51C433C60DBF800405F46D1F886
:1011200004C09C435FEA8C2C00D51C433C60DEF875
:1011300000407746D1F804C09C435FEA8C3C00D560
:101140001C433C60084F083F3C68D1F804C09C43F6
:101150005FEACC3C00D51C433C60521C102AFFF4D3
:101160002FAFBDE8F88F0000083C01404438024032
:10117000003001400000024000040240000802402C
:10118000000C02400010024000140240001802400F
:10119000001C02400AB1816170470904FBE70000AE
:1011A0000148806870470000040000200248816800
:1011B0000278114481607047040000200B4810B58C
:1011C000016841F400710160016841F480610160CF
:1011D000016841F480710160032000F06FF80F2076
:1011E00000F006F800F024F8002010BD003C02409A
:1011F00070B50D4D04464FF47A712878B1FBF0F0CC
:101200000A490968B1FBF0F000F00CFB48B9102C5A
:1012100007D200222146501E00F030F800206C60FA
:1012200070BD012070BD00000400002010000020EF
:101230000A4808B5016841F480410160006800F483
:10124000804000900548001F016841F08051016016
:10125000006800F08050009008BD00004438024053
:10126000002809DB00F01F020121914040098000A5
:1012700000F1E020C0F8001170470000F0B40E4B00
:101280001B680C46C3F30223C3F10705042D00D9E4
:101290000425191D072901D2002300E0DB1E0126C9
:1012A00006FA05F1491E214099409E40761E1640DF
:1012B0003143F0BC00F065BF0CED00E0064900F0E2
:1012C000070208684FF6FF03184040EA0220034A6D
:1012D00010430860704700000CED00E00000FA05C4
:1012E0002DE9F0470E46050065D0DFF81481D8F8E7
:1012F0000000F7B200F00700B04207D288F8007093
:10130000D8F8000000F00700B04254D128683D4CE6
:10131000810712D5400703D5206840F4E0502060D3
:101320002878000703D5206840F4604020602068DA
:10133000A96820F0F000084320602878C0072DD06D
:10134000304968680839012812D0022813D00328D0
:1013500011D00968890700292DDA216821F00301DD
:1013600001432160FFF71CFF814641F2883A0EE0FD
:1013700009688903EFE709688901ECE7FFF710FFC7
:10138000A0EB0901514502D90320BDE8F087206890
:10139000696800F00C00B0EB810FEFD1D8F80010B5
:1013A000404601F00701B14207D90770006800F01C
:1013B0000700B04201D00120E7E72878400705D5B3
:1013C0002068E96820F4E05008432060287800078E
:1013D00006D52068296920F4604040EAC1002060F9
:1013E00000F038F82168084AC1F30311515CC84085
:1013F0000649086006480068FFF7FAFE0020C4E7C7
:10140000003C02400838024036220008100000204C
:10141000080000200448054900680968044AC1F32F
:101420008221515CC84070471000002008380240FB
:10143000462200080448054900680968044AC1F3C7
:101440004231515CC840704710000020083802400B
:1014500046220008154810B5006810F00C02144828
:1014600013D01449042A0FD0082A0ED10F4C241F80
:101470002268236802F03F025B0207D52068C0F3B0
:101480008810A0FB010106E0084610BD2168C1F3E9
:101490008811A1FB00010023FEF7F2FE2168C1F3D1
:1014A0000141491C4900B0FBF1F010BD0838024071
:1014B0000024F400001BB7002DE9F84F04006ED0A3
:1014C0002078DFF84C93C007A9F104054AD009F150
:1014D00004000168C1F38101012908D00068C0F34C
:1014E000810002280AD1D9F80000400206D52868F8
:1014F000800337D560680028E1D033E06068B0F53C
:10150000803F10D0B0F5A02F286810D020F4803094
:101510002860286820F4802028606068A8B1FFF760
:101520003FFE06460DE0286840F48030F4E740F4C2
:1015300080202860F7E700BFFFF732FE801B642899
:1015400073D828688003F7D50CE0FFF729FE06461C
:1015500005E000BFFFF724FE801B6428F0D8286850
:101560008003F7D42078DFF8AC8280074FF0000AC0
:101570003ED5A748001D016811F00C0F08D0006887
:10158000C0F3810002280BD1D9F80000400207D433
:101590002868800716D5E068012800D112E033E101
:1015A000E068B8B10120C8F80000FFF7F9FD064671
:1015B00005E000BFFFF7F4FD801B0228C0D82868B3
:1015C0008007F7D52868216920F0F80040EAC100BB
:1015D00028600DE0C8F800A0FFF7E2FD064604E031
:1015E000FFF7DEFD801B02281FD828688007F7D48C
:1015F0002078000722D5864F87486169703771B11E
:1016000001210160FFF7CCFD064604E0FFF7C8FDAD
:10161000801B022809D838688007F7D50EE0C0F88B
:1016200000A0FFF7BDFD064605E082E0FFF7B8FD2C
:10163000801B02287DD838688007F7D420784007BF
:1016400068D5DFF8CCB100270BF13C0BDBF80000CC
:10165000C0000BD4DBF8001041F08051CBF8001033
:10166000DBF80000012700F0805000906B4E3068DE
:10167000C00510D4306840F480703060FFF790FDF2
:10168000009005E0FFF78CFD0099401A022850D821
:101690003068C005F6D55E4EA0686C3601280FD0C4
:1016A0000528306810D020F001003060306820F04C
:1016B00004003060A068B8B1FFF772FD00900FE041
:1016C000306840F00100F4E740F004003060F7E7D4
:1016D000FFF766FD0099411A41F28830814266D8D1
:1016E00030688007F4D50EE0FFF75AFD009007E060
:1016F000FFF756FD0099411A41F28830814256D8D1
:1017000030688007F4D42FB1DBF8001021F080514D
:10171000CBF80010A069C8B33D49091D0968C1F3A1
:10172000810102294AD00228504607D0C8F860003B
:1017300000E03CE0FFF734FD04463BE04746C8F8D4
:101740006000FFF72DFD064605E000BFFFF728FD0E
:10175000801B02282BD828688001F7D4D4E9070120
:101760000843A16A2E4A490802EB0141626A41EA34
:101770008211084394F82C1040EA0161C9F8001066
:1017800001203866FFF70CFD044606E03EE000BF8E
:10179000FFF706FD001B022809D828688001F7D54D
:1017A00034E000BFFFF7FCFC001B022802D9032035
:1017B000BDE8F88F28688001F4D427E00128F7D02D
:1017C000D9F80000E26900F4800191421CD1226A3C
:1017D00000F03F01914217D147F6C071626A0140A3
:1017E000B1EB821F10D1A26A4FF0FF3300F44031F9
:1017F00003EB5202B1EB024F06D194F82C1000F02B
:101800007060B0EB016F01D00120D1E70020CFE77D
:101810000438024000004742800E474200700040FA
:101820000000FFFF10B5401EB0F1807F01D3012002
:1018300010BD4FF0E02460610F21601700F0A1FCA3
:101840000020A06107202061002010BD7047704774
:10185000F8B5016804460868CA684B6910F00F0FB4
:101860004FF0000559D003F0010602F4907737439A
:1018700065D0C10705D0D10503D5216C41F0010128
:101880002164410705D5D90703D0216C41F002013D
:101890002164810705D5D90703D0216C41F00401EB
:1018A0002164010707D502F02001314303D0216CE8
:1018B00041F008012164216C00293AD0800604D54A
:1018C000900602D5204600F014FB20684069216C88
:1018D000C0F38010090700D460B3204600F0E2FA9C
:1018E00020684069400621D52068143050E8001F68
:1018F00021F0400140E80012002AF5D1A06BA8B108
:101900006C490165A06BFFF728FB002811D0A06B84
:10191000016D01B0BDE8F040084783060FD593067E
:101920000DD52046BDE8F84000F0E3BA2046FFF7A9
:101930008EFFF8BD2046FFF78AFF2564F8BD266BB1
:101940002023012E79D1C60677D5D60675D508682D
:10195000486800904869400640D5A16B0868406817
:101960000004000CEAD0A28D8242E7D9E085C86964
:10197000B0F5807F2DD020680C3050E8001F21F496
:10198000807140E80012002AF5D12068143050E838
:10199000001F21F0010140E80012002AF5D1206863
:1019A000143050E8001F21F0400140E80012002AE6
:1019B000F5D184F83E30256320680C3050E8001FD4
:1019C00021F0100140E80012002AF5D1A06BFFF7CA
:1019D0007BFAA08DE18D401A81B229E0A08DE18DC6
:1019E000401A81B2E08D0028A8D00029A6D0206836
:1019F0000C3050E8002F22F4907240E80026002EB0
:101A0000F5D12068143050E8002F22F0010240E8A0
:101A10000026002EF5D184F83E30256320680C3076
:101A200050E8002F22F0100240E80023002BF5D1EF
:101A30002046FFF70BFFF8BDFFE705062BD515067F
:101A400029D594F83D002128F5D1A068B0F5805F34
:101A500001D12069B0B1206A411C2162216800785F
:101A60004860E08C401E0004000CE084E3D1206854
:101A7000C16821F08001C1602068C16841F0400167
:101A8000C160D8E7206A0088C0F308004860206A77
:101A9000801C2062E5E74006CDD55006CBD5CA684C
:101AA000204622F04002CA6084F83D3000F045F93B
:101AB000C1E70000951E000870B5040004D094F83A
:101AC0003D00002510B106E0012070BD84F83C50B7
:101AD000204600F023F8242084F83D002068C168E7
:101AE00021F40051C160204600F064FA20680169C9
:101AF00021F4904101612068416921F02A0141618E
:101B00002068C16841F40051C1602564202084F838
:101B10003D0084F83E00002070BD0000F0B587B0A5
:101B2000044614216846FEF79FFC2049206888423D
:101B30003AD11F480024016841F01001016000689B
:101B400000F0100005901A481438016841F00201B5
:101B50000160016801F002010591016841F0010195
:101B600001600068022500F0010005908020CDE9A9
:101B7000000502AA0326072782E8D00069460D481F
:101B8000FFF710FA2802CDE9000502AA694682E8AB
:101B9000D0000948FFF706FA002211462520FFF77A
:101BA0006DFB2520FFF75CFB07B0F0BD0010014086
:101BB00044380240000402400000024090F83E30E9
:101BC000202B0ED159B152B190F83C30012B08D0E6
:101BD000012380F83C300023036300F071BA012038
:101BE00070470220704700002DE9F04116498842F5
:101BF00023D116A0FEF7BCFB19A11A48FEF75CFC26
:101C0000184D0024184F4FF480566D1E28B117A1AF
:101C1000681CFEF751FC38B10FE00122314638460E
:101C2000FFF7B8FA12A005E0002231463846FFF768
:101C3000B1FA12A0FEF79CFB2C70BDE8F041012226
:101C400008490148FFF7BABF200000206E6F7720D7
:101C5000697320696E2063616C6C6261636B0A005A
:101C60007300000001000020001C0240650000001D
:101C70004C4544206973206F6E0A00004C45442097
:101C80006973206F66660A002DE9F843044690F8F0
:101C90003D001F4616460D4620284CD1C5B1BEB1A9
:101CA00094F83C00012846D0012084F83C004FF015
:101CB0000008C4F84080212084F83D00FFF770FA46
:101CC000A6848146E684A068B0F5805F03D004E076
:101CD0000120BDE8F883206928B12E465FF0000599
:101CE00084F83C800EE00026FAE78021204600F0D0
:101CF00004FAA0B9AEB116F8010B21684860E08C77
:101D0000401EE084E08C4B464FF000020097002814
:101D1000EBD14FF04001204600F0EFF930B1032045
:101D2000D7E735F8020BC0F30800E6E7202084F877
:101D30003D000020CDE70220CBE77047FEE7000022
:101D400070B586B014216846FEF78EFB1648002455
:101D5000016841F001010160016801F00101059194
:101D6000016841F002010160016801F00201059182
:101D7000016841F08001016000680C4E00F08000B5
:101D80004FF480550590002229463046FFF702FAAD
:101D900001200095CDE90104694630460394FFF720
:101DA00001F906B070BD000030380240001C02404E
:101DB0000C4810B50A4901604FF4E131416000213F
:101DC00081600C22C160C0E904128161C161FFF72A
:101DD00073FE002803D0BDE81040FFF773B810BDB4
:101DE0000010014020000020FEE7FEE7704770472A
:101DF000FFF7DCB930B593B030216846FEF734FB0D
:101E000014210CA8FEF730FB1C480025016841F0A6
:101E100080510160006800F08050119018480168FE
:101E200041F4804101600068022400F48040119078
:101E300001200090000401908001CDE906400620B9
:101E400008905420CDE9090404200B906846FFF760
:101E500033FB08B172B6FEE70CA90F2081E8310010
:101E60004FF48050CDE90F0502210CA8FFF738FA96
:101E7000002801D072B6FEE713B030BD40380240F2
:101E8000007000400248016841F470010160704731
:101E900088ED00E010B5806B0021C185C184FFF79B
:101EA000D6FC10BD01680C3151E8002F22F490726D
:101EB00041E80023002BF5D10168143151E8002FCF
:101EC00022F0010241E80023002BF5D1016B01292A
:101ED00009D101680C3151E8002F22F0100241E8CD
:101EE0000023002BF5D1202180F83E100021016352
:101EF000704708B590F83E10222901D0022008BD95
:101F000082684FF480539A4201D1016921B1816AFC
:101F10009A421BD04AB10AE00268816A5268C2F351
:101F200008020A80816A891C08E0026972B10268AD
:101F3000526802F07F020A70816A491C8162C18D79
:101F4000491E0904090CC18503D019E002685268D2
:101F5000F1E70168CA6822F02002CA600168CA6815
:101F600022F48072CA6001684A6922F001024A6163
:101F7000202180F83E10016B012903D0FFF734FEC9
:101F8000002008BD0021016301680C3151E8002FD9
:101F900022F0100241E80023002BF5D101680A6805
:101FA000D20602D50A6849680091818DFFF74EFC80
:101FB000E6E7000070B5044600680169E26821F4B4
:101FC0004051114301612169A068E26908436169D8
:101FD000114308432168CA6849F20C639A430243DB
:101FE000CA6020684169A26921F4407111434161CE
:101FF00031492068884202D03049884202D1FFF737
:1020000019FA01E0FFF706FAE269002319216425B5
:102010003226B2F5004F626828D0A0FB0101930F71
:102020009200FEF72DF90146B0FBF5F06FF01802B3
:10203000504301EB800006EB0010B0FBF5F000F020
:10204000F002B1FBF5F002EB0012B1FBF5F06FF01E
:102050001803584301EB800006EB0010B0FBF5F0CD
:1020600000F00F0021681044886070BDA0FB0101E2
:1020700092185B41FEF704F90146B0FBF5F002014E
:10208000B1FBF5F06FF01803584301EB800006EB4D
:10209000C000B0FBF5F000F0F80002EB4002B1FB2D
:1020A000F5F0584301EB800006EBC000B0FBF5F003
:1020B00000F00700D6E700000010014000140140C6
:1020C00081628285C28500210164222280F83E203F
:1020D00080F83C10016921B10168CA6842F480723D
:1020E000CA6001684A6942F001024A610068C16839
:1020F00041F02001C160002070472DE9F041984671
:1021000017460E460446069D27E0681C25D02DB1D3
:10211000FFF746F8A0EB0800A8421ED920680C3053
:1021200050E8001F21F4D07140E80012002AF5D1D8
:102130002068143050E8001F21F0010140E800122F
:10214000002AF5D1202084F83D0084F83E000020CC
:1021500084F83C000320BDE8F0812068006836EA7E
:10216000000004D00020B842CFD00020F3E70120C7
:10217000F9E700000148FFF76BBB000020000020DA
:10218000FEE70907090E002804DB00F1E02080F8D3
:102190000014704700F00F0000F1E02080F8141DDB
:1021A0007047000038B504468DF800000223012274
:1021B00069460248FFF768FD204638BD2000002030
:1021C000FEF7FCFFFFF716FEFFF7BAFDFFF7F0FD85
:1021D00001220A490A48FFF7F1FC0AA0FEF7C8F8F5
:1021E000064C4FF47A75641E2178481C207008A0B4
:1021F000FEF7BEF82846FEF7C3FEF5E70100002013
:102200002000002074657374207374617274000080
:1022100073797374656D206861732077616974697F
:102220006E6720666F722025640A00004FF04070D0
:10223000E1EE100A704700000000000000000102FB
:1022400003040607080900000000010203043A74B1
:1022500074003A7474003A74740000007C22000820
:102260000000002020000000C40100089C2200089B
:1022700020000020A0070000E0010008000000008E
:102280000100000010000000000000000024F40025
:0C22900000000000000000000000000042
:040000050800018965
:00000001FF
