:020000040800F2
:1000000060040020A10100081B130008A3120008CF
:1000100019130008A90700084D150008000000008A
:100020000000000000000000000000001F13000896
:10003000AB070008000000001D1300082113000892
:10004000BB010008BB010008BB010008BB010008A0
:10005000BB010008BB010008BB010008BB01000890
:10006000BB010008BB010008BB010008BB01000880
:10007000BB010008BB010008BB010008BB01000870
:10008000BB010008BB010008BB010008BB01000860
:10009000BB010008BB010008BB010008BB01000850
:1000A000BB010008BB010008BB010008BB01000840
:1000B000BB010008BB010008BB010008BB01000830
:1000C000BB010008BB010008BB010008BB01000820
:1000D000BB010008BB010008BB010008BB01000810
:1000E000BB010008BB010008BB010008BB01000800
:1000F000BB010008BB010008BB010008BB010008F0
:10010000BB010008BB010008BB010008BB010008DF
:10011000BB010008BB010008BB010008BB010008CF
:10012000BB010008BB010008BB010008BB010008BF
:10013000BB010008BB010008BB010008BB010008AF
:10014000BB010008BB010008BB010008BB0100089F
:10015000BB010008BB010008BB010008BB0100088F
:10016000BB010008BB010008BB010008BB0100087F
:10017000BB010008BB010008BB0100080000000033
:10018000BB010008BB010008DFF810D000F01EF929
:100190000048004741170008AFF3008060040020CA
:1001A0000648804706480047FEE7FEE7FEE7FEE711
:1001B000FEE7FEE7FEE7FEE7FEE7FEE7B91300080D
:1001C000890100082DE9F05F0546002092469B4614
:1001D00088460646814640241BE02846414647465D
:1001E000224600F0D8F853465A46C01A914110D31F
:1001F00011461846224600F0BFF82D1A67EB010899
:100200004F4622460120002100F0B6F817EB000906
:100210004E41201EA4F10104DFDC484631462A4647
:100220004346BDE8F09FD2B201E000F8012B491E21
:10023000FBD270470022F6E710B513460A46044683
:100240001946FFF7F0FF204610BD00000FB400B5BF
:1002500089B00BA800906A4603480A9900F0ACF8F0
:1002600009B05DF814FB0000100000202DE9FF5FCD
:10027000D2E901A74FF00008916999461446DDF8CC
:1002800038B0464601988847054659EA0B0005D024
:1002900009E0A169761C019888470546216A28462D
:1002A00088470028F5D1681C03D05FEACA7005D0E2
:1002B00015E04FF0FF3004B0BDE8F09F2068011D4D
:1002C0002160D0F800800AE05FEACA7001D108F826
:1002D000015BA169761C7F1E019888470546002FA7
:1002E0001ADD681C18D0B9F1000F0DD0E81705EB26
:1002F000D060421120F01F0059F822102A1A012064
:1003000090400142E0D107E0BBF1000FDCD1216A4F
:10031000284688470028D7D0E16901988847BBF173
:10032000000F07D1002E05DD5FEACA7002D100215F
:1003300088F80010A068B84203DDBBF1000F03D0BD
:1003400017B16FF00100B6E73046B4E730B50B46A1
:10035000014600202022012409E021FA02F59D42F5
:1003600005D303FA02F5491B04FA02F52844151EC9
:10037000A2F10102F1DC30BD202A04DB203A00FAB0
:1003800002F1002070479140C2F1200320FA03F3EC
:10039000194390407047202A04DB203A21FA02F0EA
:1003A0000021704721FA02F3D040C2F120029140AF
:1003B0000843194670470000024B9361024BD3611A
:1003C00000F032B8051700080D040008064C074D70
:1003D00006E0E06840F0010394E807009847103415
:1003E000AC42F6D3FFF7D4FE1818000838180008FE
:1003F000094910B508784C1C18B1401E0870205CE3
:1004000010BD00210720ABBE207010BD0249087846
:10041000421C0A7070470000180000200268114456
:100420001378016018467047D1600449516104494E
:10043000116200211161114600F00AB81D04000884
:1004400045040008C0B24FF4F05100F099B9000023
:100450002DE9F34F8BB04FF0000801F10C000C4672
:100460004FF0010B46460DF1080A01906269012127
:1004700001989047051E2DD0252D2CD0216A884744
:10048000C0B16269012101989047216A884700281C
:10049000F7D1411E62690198904700E0761CA1697E
:1004A0000B988847216A88470028F7D1E1690B98A3
:1004B0008847DBE7A1690B9888470746A84201D126
:1004C000761CD3E7E1690B9888477F1C02D1B8F10D
:1004D000000F6FD047E1002762693D463946019819
:1004E00090472A2804D1626901210198904701258B
:1004F000DFF888926269012101989047A0F13001EC
:100500000A290AD24F45E5DC07EB870100EB4107DA
:10051000303FDFD445F01005ECE7E90601D46FF079
:1005200000476C280AD04C2814D0682815D06A28B7
:100530000DD074281CD07A281AD01DE062690121E0
:10054000019890476C2802D045F0040514E045F06E
:1005500002050DE045F020050AE0626901210198DD
:100560009047682802D045F0080505E045F400658D
:100570006269012101989047C4E9015765283DD07F
:1005800019DC58287AD00CDC452837D004DC252823
:1005900026D0412831D131E046282FD047282CD110
:1005A0002CE05B2877D0612828D063287CD0642891
:1005B00023D15AE0D1E06F2848D008DC66281DD04E
:1005C00067281BD0692821D06E2816D127E0702813
:1005D00045D0732868D0752847D078280DD14DE0D4
:1005E000A1690B988847054625283FF469AFE16962
:1005F0000B9888476D1C3FF46AAFB4E023466A4607
:100600006FF001000B99AFF300809FE045F04000D0
:100610006060A80723464FF0000236D43EE0E807AA
:100620007FF447AF2068011D21600068290501D5CE
:1006300006701BE7290701D5068017E7A90703D530
:10064000F117C0E9006111E706600FE745F04000CF
:100650006060A80723464FF0080216D41EE040F65B
:100660000E0125EA0100606016E045F04000606080
:10067000A80723464FF00A0207D40FE045F04000D8
:100680006060A80708D5234610226FF001000B997F
:10069000AFF300805AE007E0234610226FF001001C
:1006A0000B99AFF3008051E04FF000094F464B46E5
:1006B000632802D05B2807D041E02079C00601D42E
:1006C0000120A06001273AE062690121019890476A
:1006D0005E2805D14FF001096269494601989047AB
:1006E000216939B900210A46534643F82120491CA3
:1006F0000829FADBB0B3216969B9C11700EBD162EF
:1007000053110AEB830122F01F02821A01200B68A9
:10071000904003430B6062690121019890475D2876
:10072000E8D1B9F1000F09D00020514651F820203E
:10073000D24341F82020401C0828F7DB02AB2246B8
:1007400000976FF001000B99FFF790FD00280CDA7D
:10075000401C08D1BBF1000F05D04FF0FF300DB0A9
:10076000BDE8F08FFFE74046F9E7E90701D108F15E
:10077000010806444FF0000B78E60000CCCCCC0C0E
:100780007F2801D9002208E0064A02EB5002C00788
:10079000127800D1120902F00F02012090400840A7
:1007A00070470000D8170008FEE7704772B6FEE7F2
:1007B00070B5044600F006F90546601C02D00448F6
:1007C0000078044400F0FEF8401BA042FAD370BD4C
:1007D000000000202DE9F84FDFF8BCA10022012520
:1007E00003264FF00F090AF1040BAAF1040E00BF13
:1007F0000B6805FA02F42340A34270D10F7907F089
:100800000307012F01D0022F16D187684FEA420853
:1008100006FA08FC27EA0C07D1F80CC00CFA08FC11
:100820004CEA070CC0F808C04768A7430C79C4F32A
:10083000001494403C4344600C79E443A4070AD07C
:10084000C4684FEA420C06FA0CF7BC438F6807FAFB
:100850000CF72743C7600C7904F00304022C12D173
:10086000D40800EB840CDCF820405707FF0E09FA8F
:1008700007F824EA0804D1F8108008FA07F848EAD3
:100880000408CCF8208004684FEA420C06FA0CF702
:10089000BC430F7907F0030707FA0CF727430760FB
:1008A0004C6814F4403F70D03C4C276847F48047B4
:1008B0002760246822F0030704F480440094384C35
:1008C00007EB040CDCF8084897074FEA177809FA99
:1008D00008F7BC43334FB84202D1002724E054E06C
:1008E000314FB84201D101271EE0304FB84201D14B
:1008F000022719E02E4FB84201D1032714E02D4FF3
:10090000B84201D104270FE02B4FB84201D105278F
:100910000AE02A4FB84201D1062705E0284FB84225
:1009200001D1072700E0082707FA08F72743CCF88A
:100930000878DAF800405746D1F804C09C435FEAD3
:10094000CC2C00D51C433C60DBF800405F46D1F85E
:1009500004C09C435FEA8C2C00D51C433C60DEF84D
:1009600000407746D1F804C09C435FEA8C3C00D538
:100970001C433C60084F083F3C68D1F804C09C43CE
:100980005FEACC3C00D51C433C60521C102AFFF4AB
:100990002FAFBDE8F88F0000083C0140443802400A
:1009A0000030014000000240000402400008024004
:1009B000000C0240001002400014024000180240E7
:1009C000001C0240014880687047000000000020C1
:1009D000024881680278114481607047000000205D
:1009E0000B4810B5016841F400710160016841F4E1
:1009F00080610160016841F480710160032000F0B2
:100A000061F80F2000F006F800F024F8002010BD77
:100A1000003C024070B50D4D04464FF47A712878C1
:100A2000B1FBF0F00A490968B1FBF0F000F0F2FA0E
:100A300048B9102C07D200222146501E00F022F89F
:100A400000206C6070BD012070BD0000000000201F
:100A50000C0000200A4808B5016841F4804101609B
:100A6000006800F4804000900548001F016841F0D4
:100A700080510160006800F08050009008BD0000C7
:100A800044380240F0B40E4B1B680C46C3F30223FB
:100A9000C3F10705042D00D90425191D072901D22A
:100AA000002300E0DB1E012606FA05F1491E214065
:100AB00099409E40761E16403143F0BC00F058BD70
:100AC0000CED00E0064900F0070208684FF6FF034E
:100AD000184040EA0220034A1043086070470000B3
:100AE0000CED00E00000FA052DE9F0470E46050088
:100AF00065D0DFF81481D8F80000F7B200F00700E5
:100B0000B04207D288F80070D8F8000000F0070063
:100B1000B04254D128683D4C810712D5400703D517
:100B2000206840F4E05020602878000703D5206852
:100B300040F4604020602068A96820F0F00008437D
:100B400020602878C0072DD030496868083901280E
:100B500012D0022813D0032811D009688907002970
:100B60002DDA216821F0030101432160FFF72AFFFC
:100B7000814641F2883A0EE009688903EFE7096887
:100B80008901ECE7FFF71EFFA0EB0901514502D9EF
:100B90000320BDE8F0872068696800F00C00B0EB26
:100BA000810FEFD1D8F80010404601F00701B142A3
:100BB00007D90770006800F00700B04201D001209B
:100BC000E7E72878400705D52068E96820F4E05079
:100BD000084320602878000706D52068296920F49A
:100BE000604040EAC100206000F038F82168084AFF
:100BF000C1F30311515CC84006490860064800680B
:100C0000FFF708FF0020C4E7003C0240083802401C
:100C1000C01700080C00002004000020044805490B
:100C200000680968044AC1F38221515CC8407047DA
:100C30000C00002008380240D0170008044805497D
:100C400000680968044AC1F34231515CC8407047EA
:100C50000C00002008380240D0170008104810B5DA
:100C6000006810F00C010F4818D0042916D008298C
:100C700014D10B4C241F216801F03F022168216828
:100C80000023C1F38811A1FB0001FFF79BFA216843
:100C9000C1F30141491C4900B0FBF1F010BD000057
:100CA000083802400024F4002DE9F84F04006ED00B
:100CB0002078DFF84C93C007A9F104054AD009F168
:100CC00004000168C1F38101012908D00068C0F364
:100CD000810002280AD1D9F80000400206D5286810
:100CE000800337D560680028E1D033E06068B0F554
:100CF000803F10D0B0F5A02F286810D020F48030AD
:100D00002860286820F4802028606068A8B1FFF778
:100D100059FE06460DE0286840F48030F4E740F4C0
:100D200080202860F7E700BFFFF74CFE801B642897
:100D300073D828688003F7D50CE0FFF743FE06461A
:100D400005E000BFFFF73EFE801B6428F0D828684E
:100D50008003F7D42078DFF8AC8280074FF0000AD8
:100D60003ED5A748001D016811F00C0F08D000689F
:100D7000C0F3810002280BD1D9F80000400207D44B
:100D80002868800716D5E068012800D112E033E119
:100D9000E068B8B10120C8F80000FFF713FE06466E
:100DA00005E000BFFFF70EFE801B0228C0D82868B0
:100DB0008007F7D52868216920F0F80040EAC100D3
:100DC00028600DE0C8F800A0FFF7FCFD064604E02F
:100DD000FFF7F8FD801B02281FD828688007F7D48A
:100DE0002078000722D5864F87486169703771B136
:100DF00001210160FFF7E6FD064604E0FFF7E2FD92
:100E0000801B022809D838688007F7D50EE0C0F8A3
:100E100000A0FFF7D7FD064605E082E0FFF7D2FD10
:100E2000801B02287DD838688007F7D420784007D7
:100E300068D5DFF8CCB100270BF13C0BDBF80000E4
:100E4000C0000BD4DBF8001041F08051CBF800104B
:100E5000DBF80000012700F0805000906B4E3068F6
:100E6000C00510D4306840F480703060FFF7AAFDF0
:100E7000009005E0FFF7A6FD0099401A022850D81F
:100E80003068C005F6D55E4EA0686C3601280FD0DC
:100E90000528306810D020F001003060306820F064
:100EA00004003060A068B8B1FFF78CFD00900FE03F
:100EB000306840F00100F4E740F004003060F7E7EC
:100EC000FFF780FD0099411A41F28830814266D8CF
:100ED00030688007F4D50EE0FFF774FD009007E05E
:100EE000FFF770FD0099411A41F28830814256D8CF
:100EF00030688007F4D42FB1DBF8001021F0805166
:100F0000CBF80010A069C8B33D49091D0968C1F3B9
:100F1000810102294AD00228504607D0C8F8600053
:100F200000E03CE0FFF74EFD04463BE04746C8F8D2
:100F30006000FFF747FD064605E000BFFFF742FDF2
:100F4000801B02282BD828688001F7D4D4E9070138
:100F50000843A16A2E4A490802EB0141626A41EA4C
:100F60008211084394F82C1040EA0161C9F800107E
:100F700001203866FFF726FD044606E03EE000BF8C
:100F8000FFF720FD001B022809D828688001F7D54B
:100F900034E000BFFFF716FD001B022802D9032032
:100FA000BDE8F88F28688001F4D427E00128F7D045
:100FB000D9F80000E26900F4800191421CD1226A54
:100FC00000F03F01914217D147F6C071626A0140BB
:100FD000B1EB821F10D1A26A4FF0FF3300F4403111
:100FE00003EB5202B1EB024F06D194F82C1000F043
:100FF0007060B0EB016F01D00120D1E70020CFE796
:101000000438024000004742800E47420070004012
:101010000000FFFF10B5401EB0F1807F01D301201A
:1010200010BD4FF0E02460610F21601700F0A0FABE
:101030000020A06107202061002010BD70B50400D1
:1010400004D094F83D00002510B106E0012070BDE9
:1010500084F83C50204600F023F8242084F83D001A
:101060002068C16821F40051C160204600F0ACF94D
:101070002068016921F4904101612068416921F0F3
:101080002A0141612068C16841F40051C1602564B2
:10109000202084F83D0084F83E00002070BD000050
:1010A000F0B587B0044614216846FFF7C3F81C4921
:1010B0002068884232D11B480024016841F01001A9
:1010C0000160006800F010000590164814380168AF
:1010D00041F002010160016801F00201059101681F
:1010E00041F0010101600068022500F00100059057
:1010F0008020CDE9000502AA0326072782E8D00058
:1011000069460948FFF766FB2802CDE9000502AAF7
:10111000694682E8D0000548FFF75CFB07B0F0BDE8
:101120000010014044380240000402400000024028
:101130002DE9F84F044690F83E009A4616460D46B3
:10114000202853D1FDB1F6B194F83C0001284DD0D0
:10115000012084F83C0000272764222084F83E0008
:101160002763FFF72FFCA6858146E685A0684FF42C
:101170008058404501D1206940B12E465FF00005FE
:1011800084F83C7027E00120BDE8F88F0026F7E7DF
:101190004B46002220212046CDF800A000F09AF90D
:1011A00008B10320F0E726B1A06840451BD038B154
:1011B00008E020684068C0F3080025F8020B07E04B
:1011C000206980B12068406800F07F0006F8010BBC
:1011D000E08D401EE085E08D0028D9D1202084F8E4
:1011E0003E000020D0E720684068EFE70220CBE710
:1011F0002DE9F843044690F83D001F4616460D467B
:1012000020284CD1C5B1BEB194F83C00012846D08D
:10121000012084F83C004FF00008C4F840802120F1
:1012200084F83D00FFF7CEFBA6848146E684A068E3
:10123000B0F5805F03D004E00120BDE8F8832069A9
:1012400028B12E465FF0000584F83C800EE00026B1
:10125000FAE78021204600F03DF9A0B9AEB116F8BA
:10126000010B21684860E08C401EE084E08C4B4616
:101270004FF0000200970028EBD14FF040012046CC
:1012800000F028F930B10320D7E735F8020BC0F39E
:101290000800E6E7202084F83D000020CDE702208A
:1012A000CBE7FEE70D4808B5016841F00101016098
:1012B000016801F001010091016841F00201016043
:1012C000016801F002010091016841F080010160B4
:1012D000006800F08000009008BD00003038024037
:1012E0000C4810B50A4901604FF4E131416000211A
:1012F00081600C22C160C0E904128161C161FFF705
:101300009DFE002803D0BDE81040FFF74FBA10BD86
:10131000001001401C000020FEE7FEE77047704708
:10132000FFF756BB30B593B030216846FEF782FF19
:1013300014210CA8FEF77EFF1D480025016841F02E
:1013400080510160006800F08050119019480168D8
:1013500041F4804101600068022400F48040119053
:1013600001200090000401908001CDE90640082092
:101370000890A820CDE9090404200B906846FFF7E7
:1013800093FC08B172B6FEE70CA90F2081E831008A
:101390004FF4A0500F904FF48050109005210CA8EE
:1013A000FFF7A2FB002801D072B6FEE713B030BDF4
:1013B00040380240007000400248016841F470016A
:1013C0000160704788ED00E070B50446006801696F
:1013D000E26821F44051114301612169A068E2698A
:1013E00008436169114308432168CA6849F20C63E4
:1013F0009A430243CA6020684169A26921F440719E
:101400001143416131492068884202D03049884205
:1014100002D1FFF713FC01E0FFF700FCE2690023B3
:10142000192164253226B2F5004F626828D0A0FB4E
:101430000101930F9200FEF7C5FE0146B0FBF5F0E7
:101440006FF01802504301EB800006EB0010B0FB78
:10145000F5F000F0F002B1FBF5F002EB0012B1FB89
:10146000F5F06FF01803584301EB800006EB001015
:10147000B0FBF5F000F00F0021681044886070BDEB
:10148000A0FB010192185B41FEF79CFE0146B0FBF8
:10149000F5F00201B1FBF5F06FF01803584301EBD2
:1014A000800006EBC000B0FBF5F000F0F80002EBA6
:1014B0004002B1FBF5F0584301EB800006EBC000A1
:1014C000B0FBF5F000F00700D6E700000010014087
:1014D000001401402DE9F041984617460E46044697
:1014E000069D27E0681C25D02DB1FFF76BFAA0EB15
:1014F0000800A8421ED920680C3050E8001F21F4D3
:10150000D07140E80012002AF5D12068143050E86C
:10151000001F21F0010140E80012002AF5D120202F
:1015200084F83D0084F83E00002084F83C0003204D
:10153000BDE8F0812068006836EA000004D0002091
:10154000B842CFD00020F3E70120F9E7FEE7000022
:101550000FB4054B10B503A9044A029800F028F80F
:1015600010BC5DF814FB00002517000814000020D3
:101570000907090E002804DB00F1E02080F80014C0
:10158000704700F00F0000F1E02080F8141D704754
:1015900002E008C8121F08C1002AFAD1704770473C
:1015A000002001E001C1121F002AFBD1704700009A
:1015B0002DE9FF4F89B09B460446002506E025280B
:1015C0000BD05A460B999047641C6D1C207800285C
:1015D000F5D10DB02846BDE8F08F0027B8460122AE
:1015E000474900E0074314F8013F203B02FA03F0AB
:1015F0000842F7D120782E2819D114F8010F47F0AE
:1016000004072A280ED06FF02F022078A0F13001B5
:1016100009290CD808EB880102EB410100EB010815
:10162000641CF2E70A98641C50F8048B0A90207836
:101630000028CED0642808D0692806D075281ED08E
:101640005A460B9990476D1C58E00A994FF00A09C9
:1016500001C90A91002802DA40422D2102E0390531
:1016600004D52B218DF82010012103E0F90704D0C7
:101670002021F7E78A4608AE0DE00021FAE70A9933
:101680004FF00A0901C90A91F7E74946FEF75EFEE5
:10169000303106F8011D0028F7D1ADEB060000F14E
:1016A0002009780701D44FF00108C84502DDA8EBF6
:1016B000090000E000208046002706E008A85A46FE
:1016C000C05D0B9990476D1C7F1C5745F6DB04E00D
:1016D00030205A460B9990476D1CB8F10001A8F1D3
:1016E0000108F5DC05E016F8010B5A460B99904706
:1016F0006D1CB9F10001A9F10109F4DC641C65E776
:101700000928010008B500208DF800004FF6FF738E
:10171000012269460248FFF70BFD9DF8000008BD55
:101720001C00002038B504468DF800000223012279
:1017300069460248FFF75CFD204638BD1C000020CA
:1017400038B5FFF74DF9FFF7EDFDFFF7ABFDFFF7FC
:10175000C7FD00240CA0FFF7FBFE0FA0FFF7F8FE6B
:10176000694613A0FEF772FD12A1884209D02146F6
:10177000641CE4B211A0FFF7EBFE6420FFF718F839
:10178000F5E7002038BD0000636F646520697320B1
:101790007265616479000000706C65617365206931
:1017A0006E707574207374617274210A00000000F9
:1017B00025630A00737461727400000025640A00D6
:1017C00000000000000000000102030406070809F1
:1017D0000000000001020304DDDDDDDDDCBBBBDD5C
:1017E000DDDDDDDDDDDDDDDD9888888888888888C1
:1017F00077777777778888888555555666666666E1
:1018000066666666666888888333333222222222BF
:10181000222222222228888D381800080000002069
:101820001C00000090150008541800081C0000203F
:1018300044040000A0150008010000001000000092
:10184000000000000024F400000000000000000080
:041850000000000094
:040000050800018965
:00000001FF
