:020000040800F2
:1000000028050020A1010008FF190008491900086F
:10001000FD190008A9070008591D0008000000008C
:10002000000000000000000000000000031A0008AB
:100030004108000800000000011A0008051A000825
:10004000BB010008BB010008BB010008BB010008A0
:10005000BB010008BB010008BB010008BB01000890
:10006000BB010008BB010008BB010008BB01000880
:10007000BB010008BB010008BB010008BB01000870
:10008000BB010008BB010008BB010008BB01000860
:10009000BB010008BB010008BB010008BB01000850
:1000A000BB010008BB010008BB010008BB01000840
:1000B000BB010008BB010008BB010008BB01000830
:1000C000BB010008BB010008BB010008BB01000820
:1000D000BB0100084D1D0008BB010008BB01000862
:1000E000BB010008BB010008BB010008BB01000800
:1000F000BB010008BB010008BB010008BB010008F0
:10010000BB010008BB010008BB010008BB010008DF
:10011000BB010008BB010008BB010008BB010008CF
:10012000BB010008BB010008AD070008BB010008C7
:10013000BB010008BB010008BB010008BB010008AF
:10014000BB010008BB010008BB010008BB0100089F
:10015000BB010008BB010008B9070008BB0100088B
:10016000BB010008BB010008BB010008BB0100087F
:10017000BB010008BB010008BB0100080000000033
:10018000BB010008BB010008DFF810D000F01EF929
:10019000004800474D1F0008AFF3008028050020ED
:1001A0000648804706480047FEE7FEE7FEE7FEE711
:1001B000FEE7FEE7FEE7FEE7FEE7FEE7991A000826
:1001C000890100082DE9F05F0546002092469B4614
:1001D00088460646814640241BE02846414647465D
:1001E000224600F0D8F853465A46C01A914110D31F
:1001F00011461846224600F0BFF82D1A67EB010899
:100200004F4622460120002100F0B6F817EB000906
:100210004E41201EA4F10104DFDC484631462A4647
:100220004346BDE8F09FD2B201E000F8012B491E21
:10023000FBD270470022F6E710B513460A46044683
:100240001946FFF7F0FF204610BD00000FB400B5BF
:1002500089B00BA800906A4603480A9900F0ACF8F0
:1002600009B05DF814FB0000140000202DE9FF5FC9
:10027000D2E901A74FF00008916999461446DDF8CC
:1002800038B0464601988847054659EA0B0005D024
:1002900009E0A169761C019888470546216A28462D
:1002A00088470028F5D1681C03D05FEACA7005D0E2
:1002B00015E04FF0FF3004B0BDE8F09F2068011D4D
:1002C0002160D0F800800AE05FEACA7001D108F826
:1002D000015BA169761C7F1E019888470546002FA7
:1002E0001ADD681C18D0B9F1000F0DD0E81705EB26
:1002F000D060421120F01F0059F822102A1A012064
:1003000090400142E0D107E0BBF1000FDCD1216A4F
:10031000284688470028D7D0E16901988847BBF173
:10032000000F07D1002E05DD5FEACA7002D100215F
:1003300088F80010A068B84203DDBBF1000F03D0BD
:1003400017B16FF00100B6E73046B4E730B50B46A1
:10035000014600202022012409E021FA02F59D42F5
:1003600005D303FA02F5491B04FA02F52844151EC9
:10037000A2F10102F1DC30BD202A04DB203A00FAB0
:1003800002F1002070479140C2F1200320FA03F3EC
:10039000194390407047202A04DB203A21FA02F0EA
:1003A0000021704721FA02F3D040C2F120029140AF
:1003B0000843194670470000024B9361024BD3611A
:1003C00000F032B8111F00080D040008064C074D5C
:1003D00006E0E06840F0010394E807009847103415
:1003E000AC42F6D3FFF7D4FE2C2000084C200008C6
:1003F000094910B508784C1C18B1401E0870205CE3
:1004000010BD00210720ABBE207010BD0249087846
:10041000421C0A70704700001C0000200268114452
:100420001378016018467047D1600449516104494E
:10043000116200211161114600F00AB81D04000884
:1004400045040008C0B24FF4F05100F099B9000023
:100450002DE9F34F8BB04FF0000801F10C000C4672
:100460004FF0010B46460DF1080A01906269012127
:1004700001989047051E2DD0252D2CD0216A884744
:10048000C0B16269012101989047216A884700281C
:10049000F7D1411E62690198904700E0761CA1697E
:1004A0000B988847216A88470028F7D1E1690B98A3
:1004B0008847DBE7A1690B9888470746A84201D126
:1004C000761CD3E7E1690B9888477F1C02D1B8F10D
:1004D000000F6FD047E1002762693D463946019819
:1004E00090472A2804D1626901210198904701258B
:1004F000DFF888926269012101989047A0F13001EC
:100500000A290AD24F45E5DC07EB870100EB4107DA
:10051000303FDFD445F01005ECE7E90601D46FF079
:1005200000476C280AD04C2814D0682815D06A28B7
:100530000DD074281CD07A281AD01DE062690121E0
:10054000019890476C2802D045F0040514E045F06E
:1005500002050DE045F020050AE0626901210198DD
:100560009047682802D045F0080505E045F400658D
:100570006269012101989047C4E9015765283DD07F
:1005800019DC58287AD00CDC452837D004DC252823
:1005900026D0412831D131E046282FD047282CD110
:1005A0002CE05B2877D0612828D063287CD0642891
:1005B00023D15AE0D1E06F2848D008DC66281DD04E
:1005C00067281BD0692821D06E2816D127E0702813
:1005D00045D0732868D0752847D078280DD14DE0D4
:1005E000A1690B988847054625283FF469AFE16962
:1005F0000B9888476D1C3FF46AAFB4E023466A4607
:100600006FF001000B99AFF300809FE045F04000D0
:100610006060A80723464FF0000236D43EE0E807AA
:100620007FF447AF2068011D21600068290501D5CE
:1006300006701BE7290701D5068017E7A90703D530
:10064000F117C0E9006111E706600FE745F04000CF
:100650006060A80723464FF0080216D41EE040F65B
:100660000E0125EA0100606016E045F04000606080
:10067000A80723464FF00A0207D40FE045F04000D8
:100680006060A80708D5234610226FF001000B997F
:10069000AFF300805AE007E0234610226FF001001C
:1006A0000B99AFF3008051E04FF000094F464B46E5
:1006B000632802D05B2807D041E02079C00601D42E
:1006C0000120A06001273AE062690121019890476A
:1006D0005E2805D14FF001096269494601989047AB
:1006E000216939B900210A46534643F82120491CA3
:1006F0000829FADBB0B3216969B9C11700EBD162EF
:1007000053110AEB830122F01F02821A01200B68A9
:10071000904003430B6062690121019890475D2876
:10072000E8D1B9F1000F09D00020514651F820203E
:10073000D24341F82020401C0828F7DB02AB2246B8
:1007400000976FF001000B99FFF790FD00280CDA7D
:10075000401C08D1BBF1000F05D04FF0FF300DB0A9
:10076000BDE8F08FFFE74046F9E7E90701D108F15E
:10077000010806444FF0000B78E60000CCCCCC0C0E
:100780007F2801D9002208E0064A02EB5002C00788
:10079000127800D1120902F00F02012090400840A7
:1007A00070470000EC1F0008FEE70000014800F061
:1007B000A5B8000064000020014800F09FB80000C8
:1007C000C400002001681823CAB2103AB2FBF3F249
:1007D000054B6FF30901032A9B5CC36500D9091D12
:1007E0008165084670470000CC1F000810B501461F
:1007F00000208B698A6A4FF0C07453B1B3F5005F73
:1008000015D072B1012A0CD0022A0AD0032A09D1CC
:1008100004E01AB1012A06D0022A03D1C96AC9012B
:1008200000D5012010BDC96AA142FAD010BD002A2E
:10083000F7D0012AF2D0022AF3D0032AF3D010BD58
:10084000704772B6FEE72DE9F0410446876D00F06F
:1008500099FA064694F835000025022806D0802033
:10086000606584F834500120BDE8F081206801689B
:1008700021F0160101602068416921F08001416189
:10088000206C08B9A06C20B12068016821F0080133
:1008900001602068016821F0010101600CE000F0B6
:1008A00071FA801B052807D920206065032084F891
:1008B000350084F83450D7E720680068C007EED1CF
:1008C00094F85C103F208840B860012084F835001F
:1008D00084F834500020C7E790F83510022903D07F
:1008E0008021416501207047052180F8351000689E
:1008F000016821F001010160002070472DE9F843F3
:1009000004464FF00009CDF8009063484FF41651AB
:10091000A56D0068B0FBF1F72E6894F85C10082014
:1009200000FA01F131420FD021680A6852070BD555
:100930000A6822F004020A6094F85C108840A860FB
:10094000606D40F00100606594F85C104FF00108A4
:1009500008FA01F0304208D021684969090604D537
:10096000A860606D40F00200606594F85C1004209F
:100970008840304208D021680968890704D5A860FA
:10098000606D40F00400606594F85C1010208840B1
:10099000304218D021680968090714D5A86020687A
:1009A0000168490304D50068000308D5A16C07E07D
:1009B0000168C90503D4016821F008010160216CB8
:1009C00009B12046884794F85C10202088403042C6
:1009D00031D021680968C9062DD5A86094F8350082
:1009E00005282068016806D0490347D50068000340
:1009F0001DD4616C1CE021F0160101602068416982
:100A000021F080014161206C08B9A06C20B1206800
:100A1000016821F00801016094F85C103F208840D3
:100A2000A86084F8358084F83490216D1FE0E16B74
:100A300009B120468847606D00282BD0606DC00743
:100A400014D0052084F835002068016821F00101E8
:100A500001600098401C0090B84203D820680068EC
:100A6000C007F6D184F8358084F83490E16C002911
:100A700010D001B02046BDE8F04308470168C90521
:100A8000D5D4016821F01001016084F8358084F824
:100A90003490CCE7BDE8F883100000202DE9F04148
:100AA000044600F06FF906465CB1022084F8350078
:100AB000002584F834502068016821F001010160AC
:100AC0000DE00120BDE8F08100F05CF9801B0528F5
:100AD00005D920206065032084F83500F2E72068FE
:100AE0000068C007F0D12268116820480140D4E9AD
:100AF00001031843D4E903363343184363691843A9
:100B0000A3691843E3691843236A18430843616AD9
:100B1000042903D1D4E90B1319430843106020685A
:100B20004069666A20F0070130460E430127042819
:100B30000CD1A06A0643E06A40B12046FFF756FE9A
:100B400020B14020606584F83570BAE720684661BE
:100B50002046FFF737FE94F85C203F2191408160EA
:100B6000656584F835700020ACE700003F8010F028
:100B700070B5044600F006F90546601C02D0044832
:100B80000078044400F0FEF8401BA042FAD370BD88
:100B9000040000202DE9F84FDFF8BCA10022012558
:100BA00003264FF00F090AF1040BAAF1040E00BF4F
:100BB0000B6805FA02F42340A34270D10F7907F0C5
:100BC0000307012F01D0022F16D187684FEA420890
:100BD00006FA08FC27EA0C07D1F80CC00CFA08FC4E
:100BE0004CEA070CC0F808C04768A7430C79C4F367
:100BF000001494403C4344600C79E443A4070AD0B9
:100C0000C4684FEA420C06FA0CF7BC438F6807FA37
:100C10000CF72743C7600C7904F00304022C12D1AF
:100C2000D40800EB840CDCF820405707FF0E09FACB
:100C300007F824EA0804D1F8108008FA07F848EA0F
:100C40000408CCF8208004684FEA420C06FA0CF73E
:100C5000BC430F7907F0030707FA0CF72743076037
:100C60004C6814F4403F70D03C4C276847F48047F0
:100C70002760246822F0030704F480440094384C71
:100C800007EB040CDCF8084897074FEA177809FAD5
:100C900008F7BC43334FB84202D1002724E054E0A8
:100CA000314FB84201D101271EE0304FB84201D187
:100CB000022719E02E4FB84201D1032714E02D4F2F
:100CC000B84201D104270FE02B4FB84201D10527CC
:100CD0000AE02A4FB84201D1062705E0284FB84262
:100CE00001D1072700E0082707FA08F72743CCF8C7
:100CF0000878DAF800405746D1F804C09C435FEA10
:100D0000CC2C00D51C433C60DBF800405F46D1F89A
:100D100004C09C435FEA8C2C00D51C433C60DEF889
:100D200000407746D1F804C09C435FEA8C3C00D574
:100D30001C433C60084F083F3C68D1F804C09C430A
:100D40005FEACC3C00D51C433C60521C102AFFF4E7
:100D50002FAFBDE8F88F0000083C01404438024046
:100D60000030014000000240000402400008024040
:100D7000000C024000100240001402400018024023
:100D8000001C0240014880687047000004000020F9
:100D90000248816802781144816070470400002095
:100DA0000B4810B5016841F400710160016841F41D
:100DB00080610160016841F480710160032000F0EE
:100DC0006FF80F2000F006F800F024F8002010BDA6
:100DD000003C024070B50D4D04464FF47A712878FE
:100DE000B1FBF0F00A490968B1FBF0F000F000FB3C
:100DF00048B9102C07D200222146501E00F030F8CE
:100E000000206C6070BD012070BD00000400002057
:100E1000100000200A4808B5016841F480410160D3
:100E2000006800F4804000900548001F016841F010
:100E300080510160006800F08050009008BD000003
:100E400044380240002809DB00F01F0201219140D4
:100E50004009800000F1E020C0F800117047000058
:100E6000F0B40E4B1B680C46C3F30223C3F1070515
:100E7000042D00D90425191D072901D2002300E003
:100E8000DB1E012606FA05F1491E214099409E40CD
:100E9000761E16403143F0BC00F070BF0CED00E050
:100EA000064900F0070208684FF6FF03184040EAC1
:100EB0000220034A10430860704700000CED00E078
:100EC0000000FA052DE9F0470E46050065D0DFF871
:100ED0001481D8F80000F7B200F00700B04207D242
:100EE00088F80070D8F8000000F00700B04254D134
:100EF00028683D4C810712D5400703D5206840F48F
:100F0000E05020602878000703D5206840F4604056
:100F100020602068A96820F0F0000843206028784D
:100F2000C0072DD0304968680839012812D002283E
:100F300013D0032811D00968890700292DDA216808
:100F400021F0030101432160FFF71CFF814641F2BC
:100F5000883A0EE009688903EFE709688901ECE740
:100F6000FFF710FFA0EB0901514502D90320BDE8AE
:100F7000F0872068696800F00C00B0EB810FEFD1BA
:100F8000D8F80010404601F00701B14207D90770B8
:100F9000006800F00700B04201D00120E7E72878A0
:100FA000400705D52068E96820F4E0500843206038
:100FB0002878000706D52068296920F4604040EAB7
:100FC000C100206000F038F82168084AC1F303111D
:100FD000515CC8400649086006480068FFF7FAFE01
:100FE0000020C4E7003C024008380240D41F00083B
:100FF0001000002008000020044805490068096826
:10100000044AC1F38221515CC8407047100000209F
:1010100008380240E41F00080448054900680968D0
:10102000044AC1F34231515CC840704710000020AF
:1010300008380240E41F0008104810B5006810F09E
:101040000C010F4818D0042916D0082914D10B4CD4
:10105000241F216801F03F02216821680023C1F3A9
:101060008811A1FB0001FFF7ADF82168C1F3014130
:10107000491C4900B0FBF1F010BD000008380240E7
:101080000024F4002DE9F84F04006ED02078DFF83A
:101090004C93C007A9F104054AD009F10400016886
:1010A000C1F38101012908D00068C0F38100022842
:1010B0000AD1D9F80000400206D52868800337D548
:1010C00060680028E1D033E06068B0F5803F10D060
:1010D000B0F5A02F286810D020F480302860286850
:1010E00020F4802028606068A8B1FFF74BFE064618
:1010F0000DE0286840F48030F4E740F48020286058
:10110000F7E700BFFFF73EFE801B642873D828680E
:101110008003F7D50CE0FFF735FE064605E000BF7B
:10112000FFF730FE801B6428F0D828688003F7D4CE
:101130002078DFF8AC8280074FF0000A3ED5A74840
:10114000001D016811F00C0F08D00068C0F3810089
:1011500002280BD1D9F80000400207D42868800784
:1011600016D5E068012800D112E033E1E068B8B19B
:101170000120C8F80000FFF705FE064605E000BFA5
:10118000FFF700FE801B0228C0D828688007F7D52B
:101190002868216920F0F80040EAC10028600DE0CD
:1011A000C8F800A0FFF7EEFD064604E0FFF7EAFDF1
:1011B000801B02281FD828688007F7D420780007F2
:1011C00022D5864F87486169703771B1012101606E
:1011D000FFF7D8FD064604E0FFF7D4FD801B022888
:1011E00009D838688007F7D50EE0C0F800A0FFF7EF
:1011F000C9FD064605E082E0FFF7C4FD801B02281A
:101200007DD838688007F7D42078400768D5DFF8A4
:10121000CCB100270BF13C0BDBF80000C0000BD475
:10122000DBF8001041F08051CBF80010DBF8000033
:10123000012700F0805000906B4E3068C00510D43C
:10124000306840F480703060FFF79CFD009005E04E
:10125000FFF798FD0099401A022850D83068C00561
:10126000F6D55E4EA0686C3601280FD00528306890
:1012700010D020F001003060306820F004003060B1
:10128000A068B8B1FFF77EFD00900FE0306840F035
:101290000100F4E740F004003060F7E7FFF772FD6B
:1012A0000099411A41F28830814266D8306880073F
:1012B000F4D50EE0FFF766FD009007E0FFF762FD52
:1012C0000099411A41F28830814256D8306880072F
:1012D000F4D42FB1DBF8001021F08051CBF80010CE
:1012E000A069C8B33D49091D0968C1F381010229FC
:1012F0004AD00228504607D0C8F8600000E03CE021
:10130000FFF740FD04463BE04746C8F86000FFF7A2
:1013100039FD064605E000BFFFF734FD801B0228BB
:101320002BD828688001F7D4D4E907010843A16AC3
:101330002E4A490802EB0141626A41EA82110843E0
:1013400094F82C1040EA0161C9F8001001203866B9
:10135000FFF718FD044606E03EE000BFFFF712FD70
:10136000001B022809D828688001F7D534E000BFA7
:10137000FFF708FD001B022802D90320BDE8F88F03
:1013800028688001F4D427E00128F7D0D9F80000BC
:10139000E26900F4800191421CD1226A00F03F0111
:1013A000914217D147F6C071626A0140B1EB821FCA
:1013B00010D1A26A4FF0FF3300F4403103EB520228
:1013C000B1EB024F06D194F82C1000F07060B0EB36
:1013D000016F01D00120D1E70020CFE7043802409F
:1013E00000004742800E4742007000400000FFFFAF
:1013F00010B5401EB0F1807F01D3012010BD4FF029
:10140000E02460610F21601700F0B8FC0020A061AB
:1014100007202061002010BD70477047F8B50168B3
:1014200004460868CA684B6910F00F0F4FF00005BA
:1014300059D003F0010602F49077374365D0C10715
:1014400005D0D10503D5216C41F00101216441078C
:1014500005D5D90703D0216C41F002012164810731
:1014600005D5D90703D0216C41F00401216401079F
:1014700007D502F02001314303D0216C41F008016F
:101480002164216C00293AD0800604D5900602D54B
:10149000204600F038FB20684069216CC0F38010C2
:1014A000090700D460B3204600F006FB20684069BD
:1014B000400621D52068143050E8001F21F040017B
:1014C00040E80012002AF5D1A06BA8B16C49016573
:1014D000A06BFFF701FA002811D0A06B016D01B0DD
:1014E000BDE8F040084783060FD593060DD520468A
:1014F000BDE8F84000F007BB2046FFF78EFFF8BDBF
:101500002046FFF78AFF2564F8BD266B2023012EB5
:1015100079D1C60677D5D60675D508684868009093
:101520004869400640D5A16B086840680004000C7B
:10153000EAD0A28D8242E7D9E085C869B0F5807F04
:101540002DD020680C3050E8001F21F4807140E855
:101550000012002AF5D12068143050E8001F21F055
:10156000010140E80012002AF5D12068143050E84B
:10157000001F21F0400140E80012002AF5D184F854
:101580003E30256320680C3050E8001F21F0100128
:1015900040E80012002AF5D1A06BFFF754F9A08DA6
:1015A000E18D401A81B229E0A08DE18D401A81B20F
:1015B000E08D0028A8D00029A6D020680C3050E883
:1015C000002F22F4907240E80026002EF5D120680A
:1015D000143050E8002F22F0010240E80026002ECF
:1015E000F5D184F83E30256320680C3050E8002F98
:1015F00022F0100240E80023002BF5D12046FFF72F
:101600000BFFF8BDFFE705062BD5150629D594F885
:101610003D002128F5D1A068B0F5805F01D1206997
:10162000B0B1206A411C2162216800784860E08CDA
:10163000401E0004000CE084E3D12068C16821F062
:101640008001C1602068C16841F04001C160D8E7F5
:10165000206A0088C0F308004860206A801C20626D
:10166000E5E74006CDD55006CBD5CA68204622F026
:101670004002CA6084F83D3000F065F9C1E700001F
:10168000A91A000870B5040004D094F83D000025A4
:1016900010B106E0012070BD84F83C50204600F0F7
:1016A00023F8242084F83D002068C16821F400510B
:1016B000C160204600F088FA2068016921F4904159
:1016C00001612068416921F02A0141612068C168F7
:1016D00041F40051C1602564202084F83D0084F865
:1016E0003E00002070BD00002DE9F04387B00646A3
:1016F00014216846FEF79EFD3049306888425AD171
:101700002F480024016841F010010160006800F0DA
:10171000100005902A481438016841F00201016068
:101720000068694600F002000590C0200090022089
:10173000CDE9010403200390072004902148FFF71E
:1017400029FA224D20484FF000672860C5E901744E
:101750004FF48068C5E903486C614FF44039AC61CF
:10176000C5E9074928466C62FFF798F908B1FFF709
:1017700068F8B563AE63154D134860357830E5E819
:1017800002074020A5E81101104845F814496030CF
:10179000AC61C5E907496C62FFF780F908B1FFF752
:1017A00050F87563002211462520AE63FFF758FB01
:1017B0002520FFF747FB07B0BDE8F083001001408C
:1017C00044380240000402404064024064000020AB
:1017D0002DE9F84F044690F83E009A4616460D460D
:1017E000202853D1FDB1F6B194F83C0001284DD02A
:1017F000012084F83C0000272764222084F83E0062
:101800002763FFF7BFFAA6858146E685A0684FF4F7
:101810008058404501D1206940B12E465FF0000557
:1018200084F83C7027E00120BDE8F88F0026F7E738
:101830004B46002220212046CDF800A000F04AFAB5
:1018400008B10320F0E726B1A06840451BD038B1AD
:1018500008E020684068C0F3080025F8020B07E0A4
:10186000206980B12068406800F07F0006F8010B15
:10187000E08D401EE085E08D0028D9D1202084F83D
:101880003E000020D0E720684068EFE70220CBE769
:10189000704700002DE9F843044690F83D001F46CC
:1018A00016460D4620284CD1C5B1BEB194F83C0077
:1018B000012846D0012084F83C004FF00008C4F80D
:1018C0004080212084F83D00FFF75CFAA684814621
:1018D000E684A068B0F5805F03D004E00120BDE895
:1018E000F883206928B12E465FF0000584F83C801B
:1018F0000EE00026FAE78021204600F0EBF9A0B9BF
:10190000AEB116F8010B21684860E08C401EE084FF
:10191000E08C4B464FF0000200970028EBD14FF0CF
:101920004001204600F0D6F930B10320D7E735F862
:10193000020BC0F30800E6E7202084F83D000020F9
:10194000CDE70220CBE77047FEE700000D4808B561
:10195000016841F4800101600068002200F4800009
:10196000009011463A20FFF77BFA3A20FFF76AFA17
:10197000002211464620FFF773FABDE808404620D2
:10198000FFF760BA303802400D4808B5016841F0F1
:1019900001010160016801F001010091016841F05D
:1019A00002010160016801F002010091016841F04B
:1019B00080010160006800F08000009008BD000018
:1019C000303802400C4810B50A4901604FF4E1314B
:1019D0004160002181600C22C160C0E90412816174
:1019E000C161FFF74FFE002803D0BDE81040FEF7AD
:1019F00028BF10BD0010014020000020FEE7FEE7D8
:101A000070477047FFF7C4B930B593B030216846CE
:101A1000FEF710FC14210CA8FEF70CFC1C48002556
:101A2000016841F080510160006800F08050119021
:101A30001848016841F4804101600068022400F404
:101A40008040119001200090000401908001CDE9B8
:101A50000640082008905420CDE9090404200B908A
:101A60006846FFF70FFB08B172B6FEE70CA90F201E
:101A700081E831004FF48050CDE90F0502210CA818
:101A8000FFF720FA002801D072B6FEE713B030BD90
:101A900040380240007000400248016841F4700183
:101AA0000160704788ED00E010B5806B0021C185B2
:101AB000C184FFF7B2FC10BD01680C3151E8002F62
:101AC00022F4907241E80023002BF5D10168143113
:101AD00051E8002F22F0010241E80023002BF5D14C
:101AE000016B012909D101680C3151E8002F22F066
:101AF000100241E80023002BF5D1202180F83E1090
:101B000000210163704708B590F83E10222901D0EA
:101B1000022008BD82684FF480539A4201D10169C6
:101B200021B1816A9A421BD04AB10AE00268816AF7
:101B30005268C2F308020A80816A891C08E00269BF
:101B400072B10268526802F07F020A70816A491C11
:101B50008162C18D491E0904090CC18503D019E0B9
:101B600002685268F1E70168CA6822F02002CA6080
:101B70000168CA6822F48072CA6001684A6922F06A
:101B800001024A61202180F83E10016B012903D037
:101B9000FFF77EFE002008BD0021016301680C31C3
:101BA00051E8002F22F0100241E80023002BF5D16C
:101BB00001680A68D20602D50A6849680091818DD9
:101BC000FFF72AFCE6E7000070B5044600680169EB
:101BD000E26821F44051114301612169A068E26982
:101BE00008436169114308432168CA6849F20C63DC
:101BF0009A430243CA6020684169A26921F4407196
:101C00001143416131492068884202D030498842FD
:101C100002D1FFF701FA01E0FFF7EEF9E2690023D4
:101C2000192164253226B2F5004F626828D0A0FB46
:101C30000101930F9200FEF7C5FA0146B0FBF5F0E3
:101C40006FF01802504301EB800006EB0010B0FB70
:101C5000F5F000F0F002B1FBF5F002EB0012B1FB81
:101C6000F5F06FF01803584301EB800006EB00100D
:101C7000B0FBF5F000F00F0021681044886070BDE3
:101C8000A0FB010192185B41FEF79CFA0146B0FBF4
:101C9000F5F00201B1FBF5F06FF01803584301EBCA
:101CA000800006EBC000B0FBF5F000F0F80002EB9E
:101CB0004002B1FBF5F0584301EB800006EBC00099
:101CC000B0FBF5F000F00700D6E70000001001407F
:101CD000001401402DE9F041984617460E4604468F
:101CE000069D27E0681C25D02DB1FFF74BF8A0EB2F
:101CF0000800A8421ED920680C3050E8001F21F4CB
:101D0000D07140E80012002AF5D12068143050E864
:101D1000001F21F0010140E80012002AF5D1202027
:101D200084F83D0084F83E00002084F83C00032045
:101D3000BDE8F0812068006836EA000004D0002089
:101D4000B842CFD00020F3E70120F9E70148FFF7C0
:101D500065BB000020000020FEE700000FB4054B2B
:101D600010B503A9044A029800F028F810BC5DF8E9
:101D700014FB0000311F0008180000200907090E9D
:101D8000002804DB00F1E02080F80014704700F028
:101D90000F0000F1E02080F8141D704702E008C831
:101DA000121F08C1002AFAD170477047002001E0D5
:101DB00001C1121F002AFBD1704700002DE9FF4F1F
:101DC00089B09B460446002506E025280BD05A46DC
:101DD0000B999047641C6D1C20780028F5D10DB03C
:101DE0002846BDE8F08F0027B8460122474900E0A9
:101DF000074314F8013F203B02FA03F00842F7D1F1
:101E000020782E2819D114F8010F47F004072A284A
:101E10000ED06FF02F022078A0F1300109290CD8E4
:101E200008EB880102EB410100EB0108641CF2E7BA
:101E30000A98641C50F8048B0A9020780028CED0B1
:101E4000642808D0692806D075281ED05A460B99F8
:101E500090476D1C58E00A994FF00A0901C90A9190
:101E6000002802DA40422D2102E0390504D52B2159
:101E70008DF82010012103E0F90704D02021F7E7B5
:101E80008A4608AE0DE00021FAE70A994FF00A09E8
:101E900001C90A91F7E74946FEF758FA303106F8CA
:101EA000011D0028F7D1ADEB060000F120097807ED
:101EB00001D44FF00108C84502DDA8EB090000E09D
:101EC00000208046002706E008A85A46C05D0B990E
:101ED00090476D1C7F1C5745F6DB04E030205A46C6
:101EE0000B9990476D1CB8F10001A8F10108F5DCD1
:101EF00005E016F8010B5A460B9990476D1CB9F195
:101F00000001A9F10109F4DC641C65E7092801005E
:101F100008B500208DF800004FF6FF7301226946D6
:101F20000248FFF755FC9DF8000008BD2000002086
:101F300038B504468DF800000223012269460248A4
:101F4000FFF7A8FC204638BD2000002008B5FEF7AA
:101F500027FFFFF759FDFFF717FDFFF7F7FCFFF726
:101F600031FD00270CA0FFF7F9FE0FA0FFF7F6FEEA
:101F7000694613A0FEF76AF9124D01244FF4FA7670
:101F80003946781C87B22C700FA0FFF7E7FE304669
:101F9000FEF7EEFDF4E70000636F646520697320CF
:101FA0007265616479000000706C65617365206919
:101FB0006E707574207374617274210A00000000E1
:101FC00025630A000000002025640A0000061016A0
:101FD00000061016000000000000000001020304CB
:101FE000060708090000000001020304DDDDDDDD55
:101FF000DCBBBBDDDDDDDDDDDDDDDDDD988888889A
:102000008888888877777777778888888555555640
:102010006666666666666666666888888333333297
:1020200022222222222222222228888D4C200008CD
:1020300000000020200000009C1D00086C2000080B
:102040002000002008050000AC1D00080000000072
:102050000100000010000000000000000024F40057
:0C20600000000000000000000000000074
:040000050800018965
:00000001FF
