:020000040800F2
:100000008008002039020008DF200008F51F0008E2
:10001000DD200008510D0008CD250008000000007B
:10002000000000000000000000000000E3200008C5
:10003000110E000800000000E1200008E520000883
:10004000530200085302000853020008530200083C
:10005000530200085302000853020008530200082C
:10006000530200085302000853020008530200081C
:10007000530200085302000853020008530200080C
:1000800053020008530200085302000853020008FC
:1000900053020008530200085302000853020008EC
:1000A00053020008530200085302000853020008DC
:1000B00053020008530200085302000853020008CC
:1000C00053020008530200085302000853020008BC
:1000D00053020008C125000853020008530200081B
:1000E000530200085302000853020008530200089C
:1000F000530200085302000853020008530200088C
:10010000530200085302000853020008530200087B
:10011000530200085302000853020008530200086B
:100120005302000853020008550D0008530200084E
:10013000530200085302000853020008530200084B
:10014000530200085302000853020008530200083B
:100150005302000853020008610D00085302000812
:10016000530200085302000853020008530200081B
:100170005302000853020008530200080000000068
:10018000530200085302000800F002F800F044F89F
:100190000AA090E8000C82448344AAF10107DA45E2
:1001A00001D100F039F8AFF2090EBAE80F0013F0F0
:1001B000010F18BFFB1A43F001031847C8240000C1
:1001C000E8240000103A24BF78C878C1FAD8520752
:1001D00024BF30C830C144BF04680C6070470000C1
:1001E0000023002400250026103A28BF78C1FBD840
:1001F000520728BF30C148BF0B6070471FB502F0DF
:1002000025FA9DE8030000F075FB00F053F91FBDCF
:1002100010B500F0B8F910BD00F01BFA1146FFF759
:10022000EDFF02F0F3F900F033FB03B4FFF7F0FF4A
:1002300003BC00F0F1FC0000094880470948004772
:10024000FEE7FEE7FEE7FEE7FEE7FEE7FEE7FEE786
:10025000FEE7FEE704480549054A064B70470000E3
:100260007921000889010008800200208008002010
:10027000800400208004002053EA020C00F0698012
:100280002DE9F04B4FF00006002B1FBFB3FA83F5AA
:1002900003FA05F424FA05F65E4012BF1643B2FADB
:1002A00082F502FA05F4C5F120051EBF22FA05FC0D
:1002B00044EA0C04203556EA044C4FEA144418BFB3
:1002C000641C4FF000084FF00009904271EB030CE2
:1002D00039D3002919BFB1FA81F701FA07F6B0FA4C
:1002E00080F700FA07F6C7F120071EBF20FA07FCC7
:1002F00046EA0C062037B6FBF4FCA7EB0507103FD7
:1003000007F01F0BCBF120060CFA0BFB2CFA06F6BC
:1003100044BFB3460026202FA4BF5E464FF0000B1B
:100320005BEA060C08BF4FF0010B19EB0B09ABFBA6
:10033000027C48EB0608C01B06FB02CC0BFB03CC7F
:1003400071EB0C01C1E70B46024641464846BDE849
:10035000F08B13B54FF000004FF00001AFF30080B9
:10036000BDE81C40704700000FB4044910B503AA53
:10037000029800F071F810BC5DF814FB78010020C1
:100380004FF0000200B5134694469646203922BF2E
:10039000A0E80C50A0E80C50B1F12001BFF4F7AF79
:1003A000090728BFA0E80C5048BF0CC05DF804EB5B
:1003B000890028BF40F8042B08BF704748BF20F8C9
:1003C000022B11F0804F18BF00F8012B704700007E
:1003D0004FF0013C50F8042B51F8043B9A4221D1D4
:1003E000A2EB0C03934313EACC1317D150F8042B60
:1003F00051F8043B9A4215D1A2EB0C03934313EA44
:10040000CC130BD150F8042B51F8043B9A4209D17C
:10041000A2EB0C03934313EACC13DBD04FF00000A4
:10042000704700BFD01A01BAB1FA81F101F018018A
:1004300022FA01F0CB40C1F12001DBB2C0B2C01AF8
:100440002CFA01F3D11A914311EAC311E6D1704796
:100450007047704770470000074B70B50D467B44EE
:1004600000F011F80446284600F020F810B14FF0D3
:10047000FF3070BD204670BD8F21000001694A1C0D
:1004800002610878704700B58FB0CDE901310021D5
:10049000059105497944CDE903101146684600F0FD
:1004A00024F90FB000BD0000E5FFFFFF007B00F066
:1004B0008000704710B542485421FFF761FF414862
:1004C0005421FFF75DFF40485421FFF759FF3F4992
:1004D0003B483C4A3F4B08603D490A603A49196035
:1004E000531C0365481C1065012008653B48344ACD
:1004F00039A1784400F030F920B9384878440A38F6
:1005000000F0CFF937482F4A35A1784400F024F99C
:1005100020B9344878440A3800F0C3F932482A4AEE
:100520002FA1784400F018F920B92F4878440A38F0
:1005300000F0B7F940232248DC000021224600F0F9
:10054000E8F820B125487844543800F0AAF91D484D
:1005500022464023002100F0DCF820B121487844F5
:10056000543800F09EF9184822461023002100F06C
:10057000D0F8002806D01C487844BDE81040563812
:1005800000F08FB910BD104870B5006D20F0010467
:100590000B4800F057F90B4800F054F90A4800F0F6
:1005A00051F909E0206D20F00105204600F04AF9DC
:1005B000204600F073F82C46002CF3D170BD0000EB
:1005C0002401002078010020CC010020140000202C
:1005D000180000201C000020720000008021000094
:1005E000770000006C210000582100000EB5CDE915
:1005F000000100F0F1FA029069460120ABBE0EBD89
:1006000008B5694600900220ABBE08BD1FB58DE855
:10061000070069460520ABBE04B010BD1FB58DE8CC
:100620000F0069460620ABBEF6E708B569460090A4
:100630000920ABBE08BD1CB5CDE9000169460A2002
:10064000ABBE1CBD704708B5694600900C20ABBE20
:1006500008BD754600F02CF9AE46050069465346C4
:1006600020F00700854618B020B5FFF7F3FDBDE880
:1006700020404FF000064FF000074FF000084FF009
:10068000000B21F00701AC46ACE8C009ACE8C0099A
:10069000ACE8C009ACE8C0098D46704770B50446A7
:1006A000051F00F00BF90068002C14BF446870BDF2
:1006B000002C18BFAC423CBF20466468F8D30168E8
:1006C0000A18AA4218BF456003D12A68054611449A
:1006D000016028684119A1421CBF6C6070BD61684F
:1006E000696021680844286070BD2DE9F041064624
:1006F0000024D6E90170F5688046304603E04146A3
:10070000B847641C3046A8470028F8D12046BDE809
:10071000F08170B5C468A50713D0650211D4B2F595
:10072000807F09D0B2F5007F06D0B2F5806F08D186
:10073000012300F1240106E05D1E6FF07F46B54203
:1007400001D3012070BD0161C361416024F4706177
:100750001143C160002070BD2DE9F0410C460746F1
:100760001646104600F06EF82078611C61280AD009
:10077000722802D077283CD102E00125002405E050
:100780000225042402E0082448F2020511F8010BB6
:100790002B2806D0622809D011F8010C74280AD041
:1007A0000BE045F0030544F00204EFE745F00405D3
:1007B00044F00104EAE744F0100438462146FFF70C
:1007C00015FF411C15D00021316171604FF400719B
:1007D000F560F1617061200704D5304602220021E6
:1007E00000F0E6F8306D40F0010030653046BDE8BD
:1007F000F0810020FBE72DE9F0410D460646104C44
:10080000206DC10704D0410804D020F00104F7E7AF
:1008100022460EE0542000F09CF807000ED0206D18
:1008200047F001010843542120653846FFF7A8FD31
:100830003A4629463046BDE8F0418DE70020D6E72C
:10084000240100202DE9F04704464FF000094FF045
:10085000FF37C568D4E90486A80707D0204600F012
:1008600057F93046FFF7CCFE002802DA3846BDE8DB
:10087000F087280502D54046FFF710FF4C2120469F
:10088000FFF77EFD206D20F0010020654846EEE771
:1008900010B50446AFF300802046BDE81040FFF7D6
:1008A000C4BC10B500F07EF9BDE8104000F074B98A
:1008B0000048704720020020704700000048704741
:1008C00028020020704770477047704738B50446CB
:1008D0000A4600206946AFF30080002808BF38BDF3
:1008E00002460099204600F0A4F9012038BD0120FD
:1008F00000F0F3B9F8B5AFF30080054600200C46D0
:10090000102000BF0646A819A0420DD932466946FC
:100910000020AFF30080070008BF00F0DEF9009868
:10092000A04218BF0546C419FFF7C8FF0560074677
:10093000F01D20F007004619284600F073F9B44274
:1009400008BFF8BDA21B31463868BDE8F84000F08A
:1009500070B970B50646FFF7B1FF056806F10B00E8
:1009600020F00704B4429CBF002070BD2B466A688B
:10097000BAB11068A04210D304F1080188423CBF0C
:100980005068586007D35168101941601168091BFD
:10099000016058601460101D70BD13465268002A33
:1009A000E7D121462846FFF791FF0028DED170BD30
:1009B0002DE9F041044616460D464769007B800745
:1009C0002ED03846FFF731FE50BB3EB3012E02D089
:1009D000022E25D104E0204600F045F905441DE033
:1009E0003846FFF730FEE168002841F01001E16071
:1009F00005DA204600F058F80120BDE8F081C9036F
:100A00000BD56268E16A914200D81146A26911448F
:100A10002269891A814200DD08460544002D01DA69
:100A20000220EAE7E16A6068E268814206D2910347
:100A3000E06203D522F4003141F01002A6690027DC
:100A4000AE4213DCE16A814201D90B4600E0034665
:100A500003EB060C2369ACEB030CAC4506DD8142CD
:100A600001D98C4600E084469C4505D1A7602760EB
:100A700042F02000A5620DE0AD1BE669AE1B81428D
:100A8000A66000D90846C01A281A2060581960606C
:100A900022F0200003490840E060002084F84870FC
:100AA000ABE70000BFCFD7FFC16821F4001141F0D0
:100AB0008001C16000218160016070472DE9F0472D
:100AC000814614460E464FF0FF383248D5685769C4
:100AD000054209D03846A169FFF7ADFD002811DBBA
:100AE0002C48C0430540E5602B463246494638460F
:100AF000FFF78CFDA16920F00042B21A11440028D2
:100B0000A16103D02046FFF7CFFF4046BDE8F08744
:100B100070B504460569C06A6168884200D8084615
:100B2000E16821F42011E160C90312D5A84208D080
:100B30002246411B2846FFF7C1FF10B14FF0FF309E
:100B400070BD0020E562C4E90150E06820F4803007
:100B5000E060002070BD10B50446C06820F02000A1
:100B6000E060A16AA06988420DD02046FFF7D0FF5F
:100B7000E06820F4405040F01000E060A06AA061FE
:100B80002069E062606044F24001E0688843E06010
:100B900010BD000010000200002801D000F03CB899
:100BA0007047000010B5014602A000F07DF801205A
:100BB00010BD000053494752545245443A205265F3
:100BC0006469726563743A2063616E2774206F7084
:100BD000656E3A200000000010B5431C02E010F8DA
:100BE000011B71B18107FAD14FF0013202C88C1A92
:100BF0008C4314EAC211F9D0C01A0A0603D0C01EF1
:100C000010BDC01A10BD0A0401D0801E10BD09021B
:100C1000FCD0401E10BD000001491820ABBEFEE70D
:100C20002600020000210160C0E901107047102079
:100C30007047034640688C46002818BF88423CBF76
:100C400003464068F8D318681844884207D00CF16E
:100C5000030020F00700001D411A521A0146081D2A
:100C60000A60FFF71BBD10B50146C268900703D0AC
:100C7000900607D5886A0AE000F03EF8012101607D
:100C8000881E10BD8B69486818440B69C01A91F81A
:100C900048301BB191F84910401A10BD1103FCD522
:100CA0000028FADD401E10BD70B505460C460A202E
:100CB00000E06D1C00F018F835B128780028F8D154
:100CC00002E0641C00F010F814B120780028F8D17C
:100CD000BDE870400A2000F007B810B500F010F829
:100CE000BDE81040FFF758BF08B569468DF8000011
:100CF0000320ABBE08BD0000004870472002002062
:100D000010B5012805D0002103A0FFF7CDFF012079
:100D100010BD09A1F8E7000053494752544D454D15
:100D20003A204F7574206F662068656170206D658C
:100D30006D6F7279000000003A2048656170206D87
:100D4000656D6F727920636F72727570746564007F
:100D5000FEE70000014800F0B9B80000C400002020
:100D6000014800F0B3B800006400002001681823B7
:100D7000CAB2103AB2FBF3F2054B6FF30901032A32
:100D80009B5CC36500D9091D81650846704700005A
:100D90005626000810B5014600208B698A6A4FF07C
:100DA000C07453B1B3F5005F15D072B1012A0CD0F5
:100DB000022A0AD0032A09D104E01AB1012A06D076
:100DC000022A03D1C96AC90100D5012010BDC96A30
:100DD000A142FAD010BD002AF7D0012AF2D0022A8F
:100DE000F3D0032AF3D010BD30B50468256825F48C
:100DF00080252560046863608368402B036803D006
:100E000099600068C26030BD9A600068C16030BD02
:100E1000704772B6FEE72DE9F0410446876D00F099
:100E2000D7FA064694F835000025022806D080201F
:100E3000606584F834500120BDE8F08120680168C5
:100E400021F0160101602068416921F080014161B3
:100E5000206C08B9A06C20B12068016821F008015D
:100E600001602068016821F0010101600CE000F0E0
:100E7000AFFA801B052807D920206065032084F87D
:100E8000350084F83450D7E720680068C007EED1F9
:100E900094F85C103F208840B860012084F8350049
:100EA00084F834500020C7E790F83510022903D0A9
:100EB0008021416501207047052180F835100068C8
:100EC000016821F001010160002070472DE9F8431D
:100ED00004464FF00009CDF8009063484FF41651D6
:100EE000A56D0068B0FBF1F72E6894F85C1008203F
:100EF00000FA01F131420FD021680A6852070BD580
:100F00000A6822F004020A6094F85C108840A86025
:100F1000606D40F00100606594F85C104FF00108CE
:100F200008FA01F0304208D021684969090604D561
:100F3000A860606D40F00200606594F85C100420C9
:100F40008840304208D021680968890704D5A86024
:100F5000606D40F00400606594F85C1010208840DB
:100F6000304218D021680968090714D5A8602068A4
:100F70000168490304D50068000308D5A16C07E0A7
:100F80000168C90503D4016821F008010160216CE2
:100F900009B12046884794F85C10202088403042F0
:100FA00031D021680968C9062DD5A86094F83500AC
:100FB00005282068016806D0490347D5006800036A
:100FC0001DD4616C1CE021F01601016020684169AC
:100FD00021F080014161206C08B9A06C20B120682B
:100FE000016821F00801016094F85C103F208840FE
:100FF000A86084F8358084F83490216D1FE0E16B9F
:1010000009B120468847606D00282BD0606DC0076D
:1010100014D0052084F835002068016821F0010112
:1010200001600098401C0090B84203D82068006816
:10103000C007F6D184F8358084F83490E16C00293B
:1010400010D001B02046BDE8F04308470168C9054B
:10105000D5D4016821F01001016084F8358084F84E
:101060003490CCE7BDE8F883100000202DE9F04172
:10107000044600F0ADF906465CB1022084F8350064
:10108000002584F834502068016821F001010160D6
:101090000DE00120BDE8F08100F09AF9801B0528E1
:1010A00005D920206065032084F83500F2E7206828
:1010B0000068C007F0D12268116820480140D4E9D7
:1010C00001031843D4E903363343184363691843D3
:1010D000A3691843E3691843236A18430843616A04
:1010E000042903D1D4E90B13194308431060206885
:1010F0004069666A20F0070130460E430127042844
:101100000CD1A06A0643E06A40B12046FFF742FED8
:1011100020B14020606584F83570BAE720684661E8
:101120002046FFF723FE94F85C203F219140816028
:10113000656584F835700020ACE700003F8010F052
:101140002DE9F0410446866D90F834000025012811
:101150000DD0012084F8340094F835700020012F60
:1011600007D084F8340002252846BDE8F08102202B
:10117000FBE7022784F8357060652046FFF734FEF0
:1011800094F85C103F208840B0602068016841F00E
:1011900016010160206C20B12068016841F008014F
:1011A00001602068016841F001010160DCE7000096
:1011B00070B5044600F00CF90546601C02D00448E6
:1011C0000078044400F004F9401BA042FAD370BD3B
:1011D000040000202DE9F84FDFF8BCA10022012512
:1011E00003264FF00F090AF1040BAAF1040E00BF09
:1011F0000B6805FA02F42340A34270D10F7907F07F
:101200000307012F01D0022F16D187684FEA420849
:1012100006FA08FC27EA0C07D1F80CC00CFA08FC07
:101220004CEA070CC0F808C04768A7430C79C4F320
:10123000001494403C4344600C79E443A4070AD072
:10124000C4684FEA420C06FA0CF7BC438F6807FAF1
:101250000CF72743C7600C7904F00304022C12D169
:10126000D40800EB840CDCF820405707FF0E09FA85
:1012700007F824EA0804D1F8108008FA07F848EAC9
:101280000408CCF8208004684FEA420C06FA0CF7F8
:10129000BC430F7907F0030707FA0CF727430760F1
:1012A0004C6814F4403F70D03C4C276847F48047AA
:1012B0002760246822F0030704F480440094384C2B
:1012C00007EB040CDCF8084897074FEA177809FA8F
:1012D00008F7BC43334FB84202D1002724E054E062
:1012E000314FB84201D101271EE0304FB84201D141
:1012F000022719E02E4FB84201D1032714E02D4FE9
:10130000B84201D104270FE02B4FB84201D1052785
:101310000AE02A4FB84201D1062705E0284FB8421B
:1013200001D1072700E0082707FA08F72743CCF880
:101330000878DAF800405746D1F804C09C435FEAC9
:10134000CC2C00D51C433C60DBF800405F46D1F854
:1013500004C09C435FEA8C2C00D51C433C60DEF843
:1013600000407746D1F804C09C435FEA8C3C00D52E
:101370001C433C60084F083F3C68D1F804C09C43C4
:101380005FEACC3C00D51C433C60521C102AFFF4A1
:101390002FAFBDE8F88F0000083C01404438024000
:1013A00000300140000002400004024000080240FA
:1013B000000C0240001002400014024000180240DD
:1013C000001C02400AB1816170470904FBE700007C
:1013D00001488068704700000400002002488168CE
:1013E0000278114481607047040000200B4810B55A
:1013F000016841F400710160016841F4806101609D
:10140000016841F480710160032000F06FF80F2043
:1014100000F006F800F024F8002010BD003C024067
:1014200070B50D4D04464FF47A712878B1FBF0F099
:101430000A490968B1FBF0F000F00CFB48B9102C28
:1014400007D200222146501E00F030F800206C60C8
:1014500070BD012070BD00000400002010000020BD
:101460000A4808B5016841F480410160006800F451
:10147000804000900548001F016841F080510160E4
:10148000006800F08050009008BD00004438024021
:10149000002809DB00F01F02012191404009800073
:1014A00000F1E020C0F8001170470000F0B40E4BCE
:1014B0001B680C46C3F30223C3F10705042D00D9B2
:1014C0000425191D072901D2002300E0DB1E012697
:1014D00006FA05F1491E214099409E40761E1640AD
:1014E0003143F0BC01F073B80CED00E0064900F0A8
:1014F000070208684FF6FF03184040EA0220034A3B
:1015000010430860704700000CED00E00000FA0591
:101510002DE9F0470E46050065D0DFF81481D8F8B4
:101520000000F7B200F00700B04207D288F8007060
:10153000D8F8000000F00700B04254D128683D4CB4
:10154000810712D5400703D5206840F4E0502060A1
:101550002878000703D5206840F4604020602068A8
:10156000A96820F0F000084320602878C0072DD03B
:10157000304968680839012812D0022813D003289E
:1015800011D00968890700292DDA216821F00301AB
:1015900001432160FFF71CFF814641F2883A0EE0CB
:1015A00009688903EFE709688901ECE7FFF710FF95
:1015B000A0EB0901514502D90320BDE8F08720685E
:1015C000696800F00C00B0EB810FEFD1D8F8001083
:1015D000404601F00701B14207D90770006800F0EA
:1015E0000700B04201D00120E7E72878400705D581
:1015F0002068E96820F4E05008432060287800075C
:1016000006D52068296920F4604040EAC1002060C6
:1016100000F038F82168084AC1F30311515CC84052
:101620000649086006480068FFF7FAFE0020C4E794
:10163000003C0240083802405E26000810000020EE
:10164000080000200448054900680968044AC1F3FD
:101650008221515CC84070471000002008380240C9
:101660006E2600080448054900680968044AC1F369
:101670004231515CC84070471000002008380240D9
:101680006E260008154810B5006810F00C021448CA
:1016900013D01449042A0FD0082A0ED10F4C241F4E
:1016A0002268236802F03F025B0207D52068C0F37E
:1016B0008810A0FB010106E0084610BD2168C1F3B7
:1016C0008811A1FB00010023FEF7D6FD2168C1F3BC
:1016D0000141491C4900B0FBF1F010BD083802403F
:1016E0000024F400001BB7002DE9F84F04006ED071
:1016F0002078DFF84C93C007A9F104054AD009F11E
:1017000004000168C1F38101012908D00068C0F319
:10171000810002280AD1D9F80000400206D52868C5
:10172000800337D560680028E1D033E06068B0F509
:10173000803F10D0B0F5A02F286810D020F4803062
:101740002860286820F4802028606068A8B1FFF72E
:101750003FFE06460DE0286840F48030F4E740F490
:1017600080202860F7E700BFFFF732FE801B642867
:1017700073D828688003F7D50CE0FFF729FE0646EA
:1017800005E000BFFFF724FE801B6428F0D828681E
:101790008003F7D42078DFF8AC8280074FF0000A8E
:1017A0003ED5A748001D016811F00C0F08D0006855
:1017B000C0F3810002280BD1D9F80000400207D401
:1017C0002868800716D5E068012800D112E033E1CF
:1017D000E068B8B10120C8F80000FFF7F9FD06463F
:1017E00005E000BFFFF7F4FD801B0228C0D8286881
:1017F0008007F7D52868216920F0F80040EAC10089
:1018000028600DE0C8F800A0FFF7E2FD064604E0FE
:10181000FFF7DEFD801B02281FD828688007F7D459
:101820002078000722D5864F87486169703771B1EB
:1018300001210160FFF7CCFD064604E0FFF7C8FD7B
:10184000801B022809D838688007F7D50EE0C0F859
:1018500000A0FFF7BDFD064605E082E0FFF7B8FDFA
:10186000801B02287DD838688007F7D4207840078D
:1018700068D5DFF8CCB100270BF13C0BDBF800009A
:10188000C0000BD4DBF8001041F08051CBF8001001
:10189000DBF80000012700F0805000906B4E3068AC
:1018A000C00510D4306840F480703060FFF790FDC0
:1018B000009005E0FFF78CFD0099401A022850D8EF
:1018C0003068C005F6D55E4EA0686C3601280FD092
:1018D0000528306810D020F001003060306820F01A
:1018E00004003060A068B8B1FFF772FD00900FE00F
:1018F000306840F00100F4E740F004003060F7E7A2
:10190000FFF766FD0099411A41F28830814266D89E
:1019100030688007F4D50EE0FFF75AFD009007E02D
:10192000FFF756FD0099411A41F28830814256D89E
:1019300030688007F4D42FB1DBF8001021F080511B
:10194000CBF80010A069C8B33D49091D0968C1F36F
:10195000810102294AD00228504607D0C8F8600009
:1019600000E03CE0FFF734FD04463BE04746C8F8A2
:101970006000FFF72DFD064605E000BFFFF728FDDC
:10198000801B02282BD828688001F7D4D4E90701EE
:101990000843A16A2E4A490802EB0141626A41EA02
:1019A0008211084394F82C1040EA0161C9F8001034
:1019B00001203866FFF70CFD044606E03EE000BF5C
:1019C000FFF706FD001B022809D828688001F7D51B
:1019D00034E000BFFFF7FCFC001B022802D9032003
:1019E000BDE8F88F28688001F4D427E00128F7D0FB
:1019F000D9F80000E26900F4800191421CD1226A0A
:101A000000F03F01914217D147F6C071626A014070
:101A1000B1EB821F10D1A26A4FF0FF3300F44031C6
:101A200003EB5202B1EB024F06D194F82C1000F0F8
:101A30007060B0EB016F01D00120D1E70020CFE74B
:101A40000438024000004742800E474200700040C8
:101A50000000FFFF10B5401EB0F1807F01D30120D0
:101A600010BD4FF0E02460610F21601700F0AFFD62
:101A70000020A06107202061002010BD7047704742
:101A8000F8B5016804460868CA684B6910F00F0F82
:101A90004FF0000559D003F0010602F49077374368
:101AA00065D0C10705D0D10503D5216C41F00101F6
:101AB0002164410705D5D90703D0216C41F002010B
:101AC0002164810705D5D90703D0216C41F00401B9
:101AD0002164010707D502F02001314303D0216CB6
:101AE00041F008012164216C00293AD0800604D518
:101AF000900602D5204600F0F7FB20684069216C73
:101B0000C0F38010090700D460B3204600F0B7FB93
:101B100020684069400621D52068143050E8001F35
:101B200021F0400140E80012002AF5D1A06BA8B1D5
:101B30006C490165A06BFFF7B7F9002811D0A06BC5
:101B4000016D01B0BDE8F040084783060FD593064C
:101B50000DD52046BDE8F84000F0C6BB2046FFF793
:101B60008EFFF8BD2046FFF78AFF2564F8BD266B7F
:101B70002023012E79D1C60677D5D60675D50868FB
:101B8000486800904869400640D5A16B08684068E5
:101B90000004000CEAD0A28D8242E7D9E085C86932
:101BA000B0F5807F2DD020680C3050E8001F21F464
:101BB000807140E80012002AF5D12068143050E806
:101BC000001F21F0010140E80012002AF5D1206831
:101BD000143050E8001F21F0400140E80012002AB4
:101BE000F5D184F83E30256320680C3050E8001FA2
:101BF00021F0100140E80012002AF5D1A06BFFF798
:101C00000AF9A08DE18D401A81B229E0A08DE18D05
:101C1000401A81B2E08D0028A8D00029A6D0206803
:101C20000C3050E8002F22F4907240E80026002E7D
:101C3000F5D12068143050E8002F22F0010240E86E
:101C40000026002EF5D184F83E30256320680C3044
:101C500050E8002F22F0100240E80023002BF5D1BD
:101C60002046FFF70BFFF8BDFFE705062BD515064D
:101C700029D594F83D002128F5D1A068B0F5805F02
:101C800001D12069B0B1206A411C2162216800782D
:101C90004860E08C401E0004000CE084E3D1206822
:101CA000C16821F08001C1602068C16841F0400135
:101CB000C160D8E7206A0088C0F308004860206A45
:101CC000801C2062E5E74006CDD55006CBD5CA681A
:101CD000204622F04002CA6084F83D3000F089F9C5
:101CE000C1E700008921000870B5040004D094F811
:101CF0003D00002510B106E0012070BD84F83C5085
:101D0000204600F023F8242084F83D002068C168B4
:101D100021F40051C160204600F046FB20680169B3
:101D200021F4904101612068416921F02A0141615B
:101D30002068C16841F40051C1602564202084F806
:101D40003D0084F83E00002070BD00002DE9F04FFA
:101D500087B0064614216846FEF712FB3E493068FC
:101D6000884276D13D480024016841F010010160AD
:101D7000006800F01000059038481438016841F000
:101D800002010160016801F002010591016841F062
:101D9000010101600068022500F00100059080202B
:101DA000CDE9000502AA03274FF0070882E8900159
:101DB00069462B48FFF70EFA2802CDE9000502AA72
:101DC000694682E890012748FFF704FA274D264824
:101DD0004FF00068E5E8020840204FF48069A5E86C
:101DE00011024FF4403A45F8144905F11C004FF038
:101DF000040BAC6180E8100CC5E90A741B482C6325
:101E0000FFF734F908B1FFF704F87563AE63174DB7
:101E10001548603578382860C5E90184C5E903496B
:101E20006C6105F11C01AC6181E8100CC5E90A7414
:101E300028462C63FFF71AF908B1FEF7EAFFB563ED
:101E4000002211462520AE63FFF730FB2520FFF767
:101E50001FFB07B0BDE8F08F00100140443802407E
:101E60000004024000000240B86402406400002008
:101E700090F83E30202B0ED159B152B190F83C3041
:101E8000012B08D0012380F83C300023036300F0CD
:101E900011BB012070470220704700002DE9F0417E
:101EA0001649884223D116A0FEF75EFA19A11A48F6
:101EB000FEF78EFA184D0024184F4FF480566D1E11
:101EC00028B117A1681CFEF783FA38B10FE0012290
:101ED00031463846FFF776FA12A005E00022314677
:101EE0003846FFF76FFA12A0FEF73EFA2C70BDE8F5
:101EF000F041012208490148FFF7BABF2000002045
:101F00006E6F7720697320696E2063616C6C62610B
:101F1000636B0A007300000001000020001C0240F7
:101F2000650000004C4544206973206F6E0A000074
:101F30004C4544206973206F66660A0070470000B4
:101F40002DE9F843044690F83D001F4616460D461D
:101F500020284CD1C5B1BEB194F83C00012846D030
:101F6000012084F83C004FF00008C4F84080212094
:101F700084F83D00FFF72CFAA6848146E684A06829
:101F8000B0F5805F03D004E00120BDE8F88320694C
:101F900028B12E465FF0000584F83C800EE0002654
:101FA000FAE78021204600F0CFFAA0B9AEB116F8CA
:101FB000010B21684860E08C401EE084E08C4B46B9
:101FC0004FF0000200970028EBD14FF0400120466F
:101FD00000F0BAFA30B10320D7E735F8020BC0F3AE
:101FE0000800E6E7202084F83D000020CDE702202D
:101FF000CBE77047FEE700000D4808B5016841F4E3
:10200000800101600068002200F480000090114609
:102010003A20FFF74BFA3A20FFF73AFA002211462E
:102020004620FFF743FABDE808404620FFF730BAE4
:102030003038024070B586B014216846FEF7A0F92A
:1020400016480024016841F001010160016801F0B7
:1020500001010591016841F002010160016801F090
:1020600002010591016841F08001016000680C4E99
:1020700000F080004FF4805505900022294630463C
:10208000FFF7A0F901200095CDE90104694630462B
:102090000394FFF79FF806B070BD0000303802408F
:1020A000001C02400C4810B50A4901604FF4E131B0
:1020B0004160002181600C22C160C0E9041281618D
:1020C000C161FFF711FE002803D0BDE81040FEF704
:1020D000A0BE10BD0010014020000020FEE7FEE77A
:1020E00070477047FFF77AB930B593B03021684632
:1020F000FEF746F914210CA8FEF742F91C4800250A
:10210000016841F080510160006800F0805011903A
:102110001848016841F4804101600068022400F41D
:102120008040119001200090000401908001CDE9D1
:102130000640062008905420CDE9090404200B90A5
:102140006846FFF7D1FA08B172B6FEE70CA90F2076
:1021500081E831004FF48050CDE90F0502210CA831
:10216000FFF7D6F9002801D072B6FEE713B030BDF4
:1021700040380240007000400248016841F470019C
:102180000160704788ED00E010B5806B0021C185CB
:10219000C184FFF774FC10BD70B5846B2068406982
:1021A00094F83D10C0F3C0100025212904D118B1C6
:1021B000E584204600F08AF82068406994F83E10D3
:1021C000C0F38010222904D118B1E585204600F023
:1021D00056F8206C40F0100020642046FFF74FFCBA
:1021E00070BD10B50146806B09680968C9052FD418
:1021F0000021C18501680C3151E8002F22F4807262
:1022000041E80023002BF5D10168143151E8002F7B
:1022100022F0010241E80023002BF5D101681431BE
:1022200051E8002F22F0400241E80023002BF5D1B5
:10223000202180F83E10016B012909D101680C3181
:1022400051E8002F22F0100241E80023002BF5D1C5
:10225000016B012902D0FFF721FE10BD818DFFF730
:102260000DFC10BD10B5806B016B012902D0FFF78A
:1022700065FE10BD818D4908FFF700FC10BD0168A7
:102280000C3151E8002F22F4907241E80023002B1A
:10229000F5D10168143151E8002F22F0010241E824
:1022A0000023002BF5D1016B012909D101680C3104
:1022B00051E8002F22F0100241E80023002BF5D155
:1022C000202180F83E1000210163704701680C3125
:1022D00051E8002F22F0C00241E80023002BF5D185
:1022E000202180F83D10704708B590F83E10222953
:1022F00001D0022008BD82684FF480539A4201D178
:10230000016921B1816A9A421BD04AB10AE0026890
:10231000816A5268C2F308020A80816A891C08E057
:10232000026972B10268526802F07F020A70816A23
:10233000491C8162C18D491E0904090CC18503D065
:1023400019E002685268F1E70168CA6822F02002C9
:10235000CA600168CA6822F48072CA6001684A696A
:1023600022F001024A61202180F83E10016B012910
:1023700003D0FFF793FD002008BD00210163016831
:102380000C3151E8002F22F0100241E80023002B0D
:10239000F5D101680A68D20602D50A684968009139
:1023A000818DFFF76BFBE6E770B5044600680169B5
:1023B000E26821F44051114301612169A068E2699A
:1023C00008436169114308432168CA6849F20C63F4
:1023D0009A430243CA6020684169A26921F44071AE
:1023E0001143416131492068884202D03049884216
:1023F00002D1FFF737F901E0FFF724F9E269002382
:10240000192164253226B2F5004F626828D0A0FB5E
:102410000101930F9200FDF72FFF0146B0FBF5F08D
:102420006FF01802504301EB800006EB0010B0FB88
:10243000F5F000F0F002B1FBF5F002EB0012B1FB99
:10244000F5F06FF01803584301EB800006EB001025
:10245000B0FBF5F000F00F0021681044886070BDFB
:10246000A0FB010192185B41FDF706FF0146B0FB9E
:10247000F5F00201B1FBF5F06FF01803584301EBE2
:10248000800006EBC000B0FBF5F000F0F80002EBB6
:102490004002B1FBF5F0584301EB800006EBC000B1
:1024A000B0FBF5F000F00700D6E700000010014097
:1024B0000014014038B58162828500251346044628
:1024C0000564222084F83E00A26B1C48D063A26BF6
:1024D0001B481064A26B1B48D064A06B0A460565BC
:1024E0002168A06B091DFEF72BFE2068016840687B
:1024F000009084F83C50206948B120680C3050E8C6
:10250000001F41F4807140E80012002AF5D12068D4
:10251000143050E8001F41F0010140E80012002A89
:10252000F5D12068143050E8001F41F0400140E828
:102530000012002AF5D1002038BD0000E321000878
:1025400065220008992100082DE9F04198461746B8
:102550000E460446069D27E0681C25D02DB1FEF7E7
:1025600037FFA0EB0800A8421ED920680C3050E8C5
:10257000001F21F4D07140E80012002AF5D1206834
:10258000143050E8001F21F0010140E80012002A39
:10259000F5D1202084F83D0084F83E00002084F826
:1025A0003C000320BDE8F0812068006836EA0000A6
:1025B00004D00020B842CFD00020F3E70120F9E793
:1025C0000148FFF75DBA000020000020FEE7090780
:1025D000090E002804DB00F1E02080F800147047A9
:1025E00000F00F0000F1E02080F8141D704700009B
:1025F00038B504468DF800000223012269460248DE
:10260000FFF79EFC204638BD20000020FEF7EEFEBE
:10261000FFF76AFDFFF70EFDFFF7EEFCFFF742FD47
:102620004FF47A7405A0FDF79FFE01220549064884
:10263000FFF71EFC2046FEF7BBFDF3E77265616401
:10264000790A000001000020200000204FF04070B7
:10265000E1EE100A70470006101600061016000082
:102660000000000000000102030406070809000042
:102670000000010203043A7474003A7474003A745E
:1026800074000000A42600080000002020000000C4
:10269000C4010008C42600082000002060080000D3
:1026A000E001000800000000010000001000000030
:1026B000000000000024F400000000000000000002
:0426C0000000000016
:040000050800018965
:00000001FF
